{
  "contractName": "EnergyTransfer",
  "abi": [
    {
      "anonymous": false,
      "inputs": [
        {
          "indexed": true,
          "internalType": "address",
          "name": "from",
          "type": "address"
        },
        {
          "indexed": true,
          "internalType": "address",
          "name": "to",
          "type": "address"
        },
        {
          "indexed": false,
          "internalType": "uint256",
          "name": "value",
          "type": "uint256"
        }
      ],
      "name": "EtherSent",
      "type": "event"
    },
    {
      "anonymous": false,
      "inputs": [
        {
          "indexed": true,
          "internalType": "address",
          "name": "generator",
          "type": "address"
        },
        {
          "indexed": true,
          "internalType": "address",
          "name": "consumer",
          "type": "address"
        },
        {
          "indexed": false,
          "internalType": "uint256",
          "name": "energyGenerated",
          "type": "uint256"
        },
        {
          "indexed": false,
          "internalType": "uint256",
          "name": "energyReceived",
          "type": "uint256"
        },
        {
          "indexed": false,
          "internalType": "uint256",
          "name": "cost",
          "type": "uint256"
        }
      ],
      "name": "TransferLogged",
      "type": "event"
    },
    {
      "inputs": [],
      "name": "ETHER_PRICE_IN_TENGE",
      "outputs": [
        {
          "internalType": "uint256",
          "name": "",
          "type": "uint256"
        }
      ],
      "stateMutability": "view",
      "type": "function",
      "constant": true
    },
    {
      "inputs": [],
      "name": "PRICE_PER_MWH",
      "outputs": [
        {
          "internalType": "uint256",
          "name": "",
          "type": "uint256"
        }
      ],
      "stateMutability": "view",
      "type": "function",
      "constant": true
    },
    {
      "inputs": [
        {
          "internalType": "uint256",
          "name": "",
          "type": "uint256"
        }
      ],
      "name": "transfers",
      "outputs": [
        {
          "internalType": "address",
          "name": "generator",
          "type": "address"
        },
        {
          "internalType": "address",
          "name": "consumer",
          "type": "address"
        },
        {
          "internalType": "uint256",
          "name": "energyGenerated",
          "type": "uint256"
        },
        {
          "internalType": "uint256",
          "name": "energyReceived",
          "type": "uint256"
        },
        {
          "internalType": "uint256",
          "name": "cost",
          "type": "uint256"
        }
      ],
      "stateMutability": "view",
      "type": "function",
      "constant": true
    },
    {
      "stateMutability": "payable",
      "type": "receive",
      "payable": true
    },
    {
      "inputs": [
        {
          "internalType": "address",
          "name": "_generator",
          "type": "address"
        },
        {
          "internalType": "address",
          "name": "_consumer",
          "type": "address"
        },
        {
          "internalType": "uint256",
          "name": "_energyGenerated",
          "type": "uint256"
        },
        {
          "internalType": "uint256",
          "name": "_lossCoefficient",
          "type": "uint256"
        },
        {
          "internalType": "uint256",
          "name": "_costInEther",
          "type": "uint256"
        }
      ],
      "name": "logEnergyTransfer",
      "outputs": [],
      "stateMutability": "payable",
      "type": "function",
      "payable": true
    },
    {
      "inputs": [],
      "name": "getTransferCount",
      "outputs": [
        {
          "internalType": "uint256",
          "name": "",
          "type": "uint256"
        }
      ],
      "stateMutability": "view",
      "type": "function",
      "constant": true
    },
    {
      "inputs": [
        {
          "internalType": "uint256",
          "name": "_index",
          "type": "uint256"
        }
      ],
      "name": "getTransfer",
      "outputs": [
        {
          "internalType": "address",
          "name": "generator",
          "type": "address"
        },
        {
          "internalType": "address",
          "name": "consumer",
          "type": "address"
        },
        {
          "internalType": "uint256",
          "name": "energyGenerated",
          "type": "uint256"
        },
        {
          "internalType": "uint256",
          "name": "energyReceived",
          "type": "uint256"
        },
        {
          "internalType": "uint256",
          "name": "cost",
          "type": "uint256"
        }
      ],
      "stateMutability": "view",
      "type": "function",
      "constant": true
    },
    {
      "inputs": [
        {
          "internalType": "address",
          "name": "_address",
          "type": "address"
        }
      ],
      "name": "getTransfersByAddress",
      "outputs": [
        {
          "components": [
            {
              "internalType": "address",
              "name": "generator",
              "type": "address"
            },
            {
              "internalType": "address",
              "name": "consumer",
              "type": "address"
            },
            {
              "internalType": "uint256",
              "name": "energyGenerated",
              "type": "uint256"
            },
            {
              "internalType": "uint256",
              "name": "energyReceived",
              "type": "uint256"
            },
            {
              "internalType": "uint256",
              "name": "cost",
              "type": "uint256"
            }
          ],
          "internalType": "struct EnergyTransfer.Transfer[]",
          "name": "",
          "type": "tuple[]"
        }
      ],
      "stateMutability": "view",
      "type": "function",
      "constant": true
    }
  ],
  "bytecode": "0x608060405234801561001057600080fd5b50611457806100206000396000f3fe6080604052600436106100745760003560e01c80639a718e171161004e5780639a718e1714610108578063c16fe90714610133578063d519107e14610174578063e4cc3dd7146101b15761007b565b8063040e55f5146100805780635699bd7a146100ab5780639377d711146100c75761007b565b3661007b57005b600080fd5b34801561008c57600080fd5b506100956101dc565b6040516100a291906111b5565b60405180910390f35b6100c560048036038101906100c09190610d5a565b6101e8565b005b3480156100d357600080fd5b506100ee60048036038101906100e99190610dd1565b6104ae565b6040516100ff9594939291906110a0565b60405180910390f35b34801561011457600080fd5b5061011d610534565b60405161012a91906111b5565b60405180910390f35b34801561013f57600080fd5b5061015a60048036038101906101559190610dd1565b61053a565b60405161016b9594939291906110a0565b60405180910390f35b34801561018057600080fd5b5061019b60048036038101906101969190610d31565b6106d5565b6040516101a891906110f3565b60405180910390f35b3480156101bd57600080fd5b506101c6610ba9565b6040516101d391906111b5565b60405180910390f35b60008080549050905090565b6000831161022b576040517f08c379a000000000000000000000000000000000000000000000000000000000815260040161022290611155565b60405180910390fd5b6000821015801561023d575060648211155b61027c576040517f08c379a000000000000000000000000000000000000000000000000000000000815260040161027390611175565b60405180910390fd5b60006064838561028c9190611282565b6102969190611251565b9050600081856102a691906112dc565b905060006159d8826102b89190611282565b9050833410156102fd576040517f08c379a00000000000000000000000000000000000000000000000000000000081526004016102f490611135565b60405180910390fd5b60006040518060a001604052808a73ffffffffffffffffffffffffffffffffffffffff1681526020018973ffffffffffffffffffffffffffffffffffffffff168152602001888152602001848152602001838152509050600081908060018154018082558091505060019003906000526020600020906005020160009091909190915060008201518160000160006101000a81548173ffffffffffffffffffffffffffffffffffffffff021916908373ffffffffffffffffffffffffffffffffffffffff16021790555060208201518160010160006101000a81548173ffffffffffffffffffffffffffffffffffffffff021916908373ffffffffffffffffffffffffffffffffffffffff16021790555060408201518160020155606082015181600301556080820151816004015550508773ffffffffffffffffffffffffffffffffffffffff168973ffffffffffffffffffffffffffffffffffffffff167ffda3a173998751d4dca4d16e10b92a9081d4c3704819b8649ff4a17f9e94ca1b89868660405161048f939291906111d0565b60405180910390a36104a2888a87610bb0565b50505050505050505050565b600081815481106104be57600080fd5b90600052602060002090600502016000915090508060000160009054906101000a900473ffffffffffffffffffffffffffffffffffffffff16908060010160009054906101000a900473ffffffffffffffffffffffffffffffffffffffff16908060020154908060030154908060040154905085565b6159d881565b600080600080600080805490508610610588576040517f08c379a000000000000000000000000000000000000000000000000000000000815260040161057f90611115565b60405180910390fd5b60008087815481106105c3577f4e487b7100000000000000000000000000000000000000000000000000000000600052603260045260246000fd5b90600052602060002090600502016040518060a00160405290816000820160009054906101000a900473ffffffffffffffffffffffffffffffffffffffff1673ffffffffffffffffffffffffffffffffffffffff1673ffffffffffffffffffffffffffffffffffffffff1681526020016001820160009054906101000a900473ffffffffffffffffffffffffffffffffffffffff1673ffffffffffffffffffffffffffffffffffffffff1673ffffffffffffffffffffffffffffffffffffffff1681526020016002820154815260200160038201548152602001600482015481525050905080600001518160200151826040015183606001518460800151955095509550955095505091939590929450565b60606000805b60008054905081101561084a578373ffffffffffffffffffffffffffffffffffffffff1660008281548110610739577f4e487b7100000000000000000000000000000000000000000000000000000000600052603260045260246000fd5b906000526020600020906005020160000160009054906101000a900473ffffffffffffffffffffffffffffffffffffffff1673ffffffffffffffffffffffffffffffffffffffff16148061082357508373ffffffffffffffffffffffffffffffffffffffff16600082815481106107d9577f4e487b7100000000000000000000000000000000000000000000000000000000600052603260045260246000fd5b906000526020600020906005020160010160009054906101000a900473ffffffffffffffffffffffffffffffffffffffff1673ffffffffffffffffffffffffffffffffffffffff16145b156108375781806108339061134c565b9250505b80806108429061134c565b9150506106db565b5060008167ffffffffffffffff81111561088d577f4e487b7100000000000000000000000000000000000000000000000000000000600052604160045260246000fd5b6040519080825280602002602001820160405280156108c657816020015b6108b3610cac565b8152602001906001900390816108ab5790505b5090506000805b600080549050811015610b9d578573ffffffffffffffffffffffffffffffffffffffff166000828154811061092b577f4e487b7100000000000000000000000000000000000000000000000000000000600052603260045260246000fd5b906000526020600020906005020160000160009054906101000a900473ffffffffffffffffffffffffffffffffffffffff1673ffffffffffffffffffffffffffffffffffffffff161480610a1557508573ffffffffffffffffffffffffffffffffffffffff16600082815481106109cb577f4e487b7100000000000000000000000000000000000000000000000000000000600052603260045260246000fd5b906000526020600020906005020160010160009054906101000a900473ffffffffffffffffffffffffffffffffffffffff1673ffffffffffffffffffffffffffffffffffffffff16145b15610b8a5760008181548110610a54577f4e487b7100000000000000000000000000000000000000000000000000000000600052603260045260246000fd5b90600052602060002090600502016040518060a00160405290816000820160009054906101000a900473ffffffffffffffffffffffffffffffffffffffff1673ffffffffffffffffffffffffffffffffffffffff1673ffffffffffffffffffffffffffffffffffffffff1681526020016001820160009054906101000a900473ffffffffffffffffffffffffffffffffffffffff1673ffffffffffffffffffffffffffffffffffffffff1673ffffffffffffffffffffffffffffffffffffffff1681526020016002820154815260200160038201548152602001600482015481525050838381518110610b70577f4e487b7100000000000000000000000000000000000000000000000000000000600052603260045260246000fd5b60200260200101819052508180610b869061134c565b9250505b8080610b959061134c565b9150506108cd565b50819350505050919050565b6215e74181565b600081471015610bf5576040517f08c379a0000000000000000000000000000000000000000000000000000000008152600401610bec90611195565b60405180910390fd5b8273ffffffffffffffffffffffffffffffffffffffff166108fc839081150290604051600060405180830381858888f19350505050158015610c3b573d6000803e3d6000fd5b508273ffffffffffffffffffffffffffffffffffffffff168473ffffffffffffffffffffffffffffffffffffffff167f10d1a5dc650a65cd6625a330078a13ee62c6ec85b36e94bdf57e4d3188ca673884604051610c9991906111b5565b60405180910390a3600190509392505050565b6040518060a00160405280600073ffffffffffffffffffffffffffffffffffffffff168152602001600073ffffffffffffffffffffffffffffffffffffffff1681526020016000815260200160008152602001600081525090565b600081359050610d16816113f3565b92915050565b600081359050610d2b8161140a565b92915050565b600060208284031215610d4357600080fd5b6000610d5184828501610d07565b91505092915050565b600080600080600060a08688031215610d7257600080fd5b6000610d8088828901610d07565b9550506020610d9188828901610d07565b9450506040610da288828901610d1c565b9350506060610db388828901610d1c565b9250506080610dc488828901610d1c565b9150509295509295909350565b600060208284031215610de357600080fd5b6000610df184828501610d1c565b91505092915050565b6000610e06838361101a565b60a08301905092915050565b610e1b81611310565b82525050565b610e2a81611310565b82525050565b6000610e3b82611217565b610e45818561122f565b9350610e5083611207565b8060005b83811015610e81578151610e688882610dfa565b9750610e7383611222565b925050600181019050610e54565b5085935050505092915050565b6000610e9b600d83611240565b91507f496e76616c696420696e646578000000000000000000000000000000000000006000830152602082019050919050565b6000610edb601783611240565b91507f496e73756666696369656e742045746865722073656e740000000000000000006000830152602082019050919050565b6000610f1b602a83611240565b91507f456e657267792067656e657261746564206d757374206265206772656174657260008301527f207468616e207a65726f000000000000000000000000000000000000000000006020830152604082019050919050565b6000610f81602a83611240565b91507f4c6f737320636f656666696369656e74206d757374206265206265747765656e60008301527f203020616e6420313030000000000000000000000000000000000000000000006020830152604082019050919050565b6000610fe7601d83611240565b91507f496e73756666696369656e7420636f6e74726163742062616c616e63650000006000830152602082019050919050565b60a0820160008201516110306000850182610e12565b5060208201516110436020850182610e12565b5060408201516110566040850182611082565b5060608201516110696060850182611082565b50608082015161107c6080850182611082565b50505050565b61108b81611342565b82525050565b61109a81611342565b82525050565b600060a0820190506110b56000830188610e21565b6110c26020830187610e21565b6110cf6040830186611091565b6110dc6060830185611091565b6110e96080830184611091565b9695505050505050565b6000602082019050818103600083015261110d8184610e30565b905092915050565b6000602082019050818103600083015261112e81610e8e565b9050919050565b6000602082019050818103600083015261114e81610ece565b9050919050565b6000602082019050818103600083015261116e81610f0e565b9050919050565b6000602082019050818103600083015261118e81610f74565b9050919050565b600060208201905081810360008301526111ae81610fda565b9050919050565b60006020820190506111ca6000830184611091565b92915050565b60006060820190506111e56000830186611091565b6111f26020830185611091565b6111ff6040830184611091565b949350505050565b6000819050602082019050919050565b600081519050919050565b6000602082019050919050565b600082825260208201905092915050565b600082825260208201905092915050565b600061125c82611342565b915061126783611342565b925082611277576112766113c4565b5b828204905092915050565b600061128d82611342565b915061129883611342565b9250817fffffffffffffffffffffffffffffffffffffffffffffffffffffffffffffffff04831182151516156112d1576112d0611395565b5b828202905092915050565b60006112e782611342565b91506112f283611342565b92508282101561130557611304611395565b5b828203905092915050565b600061131b82611322565b9050919050565b600073ffffffffffffffffffffffffffffffffffffffff82169050919050565b6000819050919050565b600061135782611342565b91507fffffffffffffffffffffffffffffffffffffffffffffffffffffffffffffffff82141561138a57611389611395565b5b600182019050919050565b7f4e487b7100000000000000000000000000000000000000000000000000000000600052601160045260246000fd5b7f4e487b7100000000000000000000000000000000000000000000000000000000600052601260045260246000fd5b6113fc81611310565b811461140757600080fd5b50565b61141381611342565b811461141e57600080fd5b5056fea2646970667358221220094b0746668fa4abfd973d27e73ba27912474051d6c4ae4a573a80917aaec61f64736f6c63430008000033",
  "immutableReferences": {},
  "source": "// SPDX-License-Identifier: MIT\npragma solidity ^0.8.0;\n\ncontract EnergyTransfer {\n    uint256 public constant PRICE_PER_MWH = 23000; //    , .. 10  = 0.10 \n    uint256 public constant ETHER_PRICE_IN_TENGE = 1435457; //    \n\n    struct Transfer {\n        address generator;\n        address consumer;\n        uint256 energyGenerated; //  \n        uint256 energyReceived; //  \n        uint256 cost; //  \n    }\n\n    Transfer[] public transfers;\n\n    event TransferLogged(\n        address indexed generator,\n        address indexed consumer,\n        uint256 energyGenerated,\n        uint256 energyReceived,\n        uint256 cost\n    );\n\n    event EtherSent(\n        address indexed from,\n        address indexed to,\n        uint256 value\n    );\n\n    function logEnergyTransfer(\n        address _generator,\n        address _consumer,\n        uint256 _energyGenerated,\n        uint256 _lossCoefficient,\n        uint256 _costInEther\n    ) public payable {\n        require(_energyGenerated > 0, \"Energy generated must be greater than zero\");\n        require(_lossCoefficient >= 0 && _lossCoefficient <= 100, \"Loss coefficient must be between 0 and 100\");\n\n        uint256 energyLoss = (_energyGenerated * _lossCoefficient) / 100;\n        uint256 energyReceived = _energyGenerated - energyLoss;\n        uint256 cost = (energyReceived * PRICE_PER_MWH);\n\n        require(msg.value >= _costInEther, \"Insufficient Ether sent\");\n\n        Transfer memory newTransfer = Transfer({\n            generator: _generator,\n            consumer: _consumer,\n            energyGenerated: _energyGenerated,\n            energyReceived: energyReceived,\n            cost: cost\n        });\n\n        transfers.push(newTransfer);\n\n        emit TransferLogged(_generator, _consumer, _energyGenerated, energyReceived, cost);\n\n        sendEther(_consumer, _generator, _costInEther);\n    }\n\n    function getTransferCount() public view returns (uint256) {\n        return transfers.length;\n    }\n\n    function getTransfer(uint256 _index) public view returns (\n        address generator,\n        address consumer,\n        uint256 energyGenerated,\n        uint256 energyReceived,\n        uint256 cost\n    ) {\n        require(_index < transfers.length, \"Invalid index\");\n        Transfer memory transfer = transfers[_index];\n        return (\n            transfer.generator,\n            transfer.consumer,\n            transfer.energyGenerated,\n            transfer.energyReceived,\n            transfer.cost\n        );\n    }\n\n    function getTransfersByAddress(address _address) public view returns (Transfer[] memory) {\n        uint256 count = 0;\n        for (uint256 i = 0; i < transfers.length; i++) {\n            if (transfers[i].generator == _address || transfers[i].consumer == _address) {\n                count++;\n            }\n        }\n\n        Transfer[] memory result = new Transfer[](count);\n        uint256 j = 0;\n        for (uint256 i = 0; i < transfers.length; i++) {\n            if (transfers[i].generator == _address || transfers[i].consumer == _address) {\n                result[j] = transfers[i];\n                j++;\n            }\n        }\n\n        return result;\n    }\n\n    function sendEther(address _consumer, address _generator, uint256 costInEther) internal returns (bool success) {\n        require(address(this).balance >= costInEther, \"Insufficient contract balance\");\n\n        payable(_generator).transfer(costInEther);\n\n        emit EtherSent(_consumer, _generator, costInEther);\n        return true;\n    }\n\n    receive() external payable {}\n}\n",
  "sourcePath": "/Users/abdisadykov/WebstormProjects/generatorFreelance/contracts/EnergyTransfer.sol",
  "compiler": {
    "name": "solc",
    "version": "0.8.0+commit.c7dfd78e.Emscripten.clang"
  },
  "schemaVersion": "3.4.16",
  "updatedAt": "2024-07-12T10:00:54.047Z",
  "networkType": "ethereum",
  "devdoc": {
    "kind": "dev",
    "methods": {},
    "version": 1
  },
  "userdoc": {
    "kind": "user",
    "methods": {},
    "version": 1
  }
}