{
  "contractName": "EnergyLossCalculator",
  "abi": [
    {
      "anonymous": false,
      "inputs": [
        {
          "indexed": true,
          "internalType": "address",
          "name": "generator",
          "type": "address"
        },
        {
          "indexed": true,
          "internalType": "address",
          "name": "consumer",
          "type": "address"
        },
        {
          "indexed": false,
          "internalType": "uint256",
          "name": "energyGenerated",
          "type": "uint256"
        },
        {
          "indexed": false,
          "internalType": "uint256",
          "name": "energyReceived",
          "type": "uint256"
        },
        {
          "indexed": false,
          "internalType": "uint256",
          "name": "energyLoss",
          "type": "uint256"
        },
        {
          "indexed": false,
          "internalType": "uint256",
          "name": "cost",
          "type": "uint256"
        }
      ],
      "name": "EnergyTransferLogged",
      "type": "event"
    },
    {
      "inputs": [],
      "name": "PRICE_PER_KWH",
      "outputs": [
        {
          "internalType": "uint256",
          "name": "",
          "type": "uint256"
        }
      ],
      "stateMutability": "view",
      "type": "function",
      "constant": true
    },
    {
      "inputs": [
        {
          "internalType": "uint256",
          "name": "",
          "type": "uint256"
        }
      ],
      "name": "energyTransfers",
      "outputs": [
        {
          "internalType": "address",
          "name": "generator",
          "type": "address"
        },
        {
          "internalType": "address",
          "name": "consumer",
          "type": "address"
        },
        {
          "internalType": "uint256",
          "name": "energyGenerated",
          "type": "uint256"
        },
        {
          "internalType": "uint256",
          "name": "energyReceived",
          "type": "uint256"
        },
        {
          "internalType": "uint256",
          "name": "energyLoss",
          "type": "uint256"
        },
        {
          "internalType": "uint256",
          "name": "cost",
          "type": "uint256"
        }
      ],
      "stateMutability": "view",
      "type": "function",
      "constant": true
    },
    {
      "inputs": [
        {
          "internalType": "address",
          "name": "_generator",
          "type": "address"
        },
        {
          "internalType": "address",
          "name": "_consumer",
          "type": "address"
        },
        {
          "internalType": "uint256",
          "name": "_energyGenerated",
          "type": "uint256"
        },
        {
          "internalType": "uint256",
          "name": "_lossCoefficient",
          "type": "uint256"
        }
      ],
      "name": "calculateEnergyLoss",
      "outputs": [],
      "stateMutability": "nonpayable",
      "type": "function"
    },
    {
      "inputs": [],
      "name": "getEnergyTransferCount",
      "outputs": [
        {
          "internalType": "uint256",
          "name": "",
          "type": "uint256"
        }
      ],
      "stateMutability": "view",
      "type": "function",
      "constant": true
    },
    {
      "inputs": [
        {
          "internalType": "uint256",
          "name": "_index",
          "type": "uint256"
        }
      ],
      "name": "getEnergyTransfer",
      "outputs": [
        {
          "internalType": "address",
          "name": "generator",
          "type": "address"
        },
        {
          "internalType": "address",
          "name": "consumer",
          "type": "address"
        },
        {
          "internalType": "uint256",
          "name": "energyGenerated",
          "type": "uint256"
        },
        {
          "internalType": "uint256",
          "name": "energyReceived",
          "type": "uint256"
        },
        {
          "internalType": "uint256",
          "name": "energyLoss",
          "type": "uint256"
        },
        {
          "internalType": "uint256",
          "name": "cost",
          "type": "uint256"
        }
      ],
      "stateMutability": "view",
      "type": "function",
      "constant": true
    }
  ],
  "bytecode": "0x608060405234801561001057600080fd5b50610abf806100206000396000f3fe608060405234801561001057600080fd5b50600436106100575760003560e01c8063193ba1021461005c5780635611296f1461007a5780636e62c6e814610098578063779a9749146100cd57806398e0890814610102575b600080fd5b61006461011e565b6040516100719190610891565b60405180910390f35b610082610123565b60405161008f9190610891565b60405180910390f35b6100b260048036038101906100ad919061067d565b61012f565b6040516100c4969594939291906107d0565b60405180910390f35b6100e760048036038101906100e2919061067d565b6102dd565b6040516100f9969594939291906107d0565b60405180910390f35b61011c6004803603810190610117919061061a565b610369565b005b600a81565b60008080549050905090565b600080600080600080600080549050871061017f576040517f08c379a000000000000000000000000000000000000000000000000000000000815260040161017690610831565b60405180910390fd5b60008088815481106101ba577f4e487b7100000000000000000000000000000000000000000000000000000000600052603260045260246000fd5b90600052602060002090600602016040518060c00160405290816000820160009054906101000a900473ffffffffffffffffffffffffffffffffffffffff1673ffffffffffffffffffffffffffffffffffffffff1673ffffffffffffffffffffffffffffffffffffffff1681526020016001820160009054906101000a900473ffffffffffffffffffffffffffffffffffffffff1673ffffffffffffffffffffffffffffffffffffffff1673ffffffffffffffffffffffffffffffffffffffff1681526020016002820154815260200160038201548152602001600482015481526020016005820154815250509050806000015181602001518260400151836060015184608001518560a001519650965096509650965096505091939550919395565b600081815481106102ed57600080fd5b90600052602060002090600602016000915090508060000160009054906101000a900473ffffffffffffffffffffffffffffffffffffffff16908060010160009054906101000a900473ffffffffffffffffffffffffffffffffffffffff16908060020154908060030154908060040154908060050154905086565b600082116103ac576040517f08c379a00000000000000000000000000000000000000000000000000000000081526004016103a390610851565b60405180910390fd5b600081101580156103be575060648111155b6103fd576040517f08c379a00000000000000000000000000000000000000000000000000000000081526004016103f490610871565b60405180910390fd5b60006064828461040d9190610933565b6104179190610902565b905060008184610427919061098d565b90506000600a826104389190610933565b905060006040518060c001604052808973ffffffffffffffffffffffffffffffffffffffff1681526020018873ffffffffffffffffffffffffffffffffffffffff168152602001878152602001848152602001858152602001838152509050600081908060018154018082558091505060019003906000526020600020906006020160009091909190915060008201518160000160006101000a81548173ffffffffffffffffffffffffffffffffffffffff021916908373ffffffffffffffffffffffffffffffffffffffff16021790555060208201518160010160006101000a81548173ffffffffffffffffffffffffffffffffffffffff021916908373ffffffffffffffffffffffffffffffffffffffff16021790555060408201518160020155606082015181600301556080820151816004015560a0820151816005015550508673ffffffffffffffffffffffffffffffffffffffff168873ffffffffffffffffffffffffffffffffffffffff167f0f104e499502b66e514740d110c04f75506fe2b8b54b48121bee98bf3385380a888688876040516105de94939291906108ac565b60405180910390a35050505050505050565b6000813590506105ff81610a5b565b92915050565b60008135905061061481610a72565b92915050565b6000806000806080858703121561063057600080fd5b600061063e878288016105f0565b945050602061064f878288016105f0565b935050604061066087828801610605565b925050606061067187828801610605565b91505092959194509250565b60006020828403121561068f57600080fd5b600061069d84828501610605565b91505092915050565b6106af816109c1565b82525050565b60006106c2600d836108f1565b91507f496e76616c696420696e646578000000000000000000000000000000000000006000830152602082019050919050565b6000610702602a836108f1565b91507f456e657267792067656e657261746564206d757374206265206772656174657260008301527f207468616e207a65726f000000000000000000000000000000000000000000006020830152604082019050919050565b6000610768602a836108f1565b91507f4c6f737320636f656666696369656e74206d757374206265206265747765656e60008301527f203020616e6420313030000000000000000000000000000000000000000000006020830152604082019050919050565b6107ca816109f3565b82525050565b600060c0820190506107e560008301896106a6565b6107f260208301886106a6565b6107ff60408301876107c1565b61080c60608301866107c1565b61081960808301856107c1565b61082660a08301846107c1565b979650505050505050565b6000602082019050818103600083015261084a816106b5565b9050919050565b6000602082019050818103600083015261086a816106f5565b9050919050565b6000602082019050818103600083015261088a8161075b565b9050919050565b60006020820190506108a660008301846107c1565b92915050565b60006080820190506108c160008301876107c1565b6108ce60208301866107c1565b6108db60408301856107c1565b6108e860608301846107c1565b95945050505050565b600082825260208201905092915050565b600061090d826109f3565b9150610918836109f3565b92508261092857610927610a2c565b5b828204905092915050565b600061093e826109f3565b9150610949836109f3565b9250817fffffffffffffffffffffffffffffffffffffffffffffffffffffffffffffffff0483118215151615610982576109816109fd565b5b828202905092915050565b6000610998826109f3565b91506109a3836109f3565b9250828210156109b6576109b56109fd565b5b828203905092915050565b60006109cc826109d3565b9050919050565b600073ffffffffffffffffffffffffffffffffffffffff82169050919050565b6000819050919050565b7f4e487b7100000000000000000000000000000000000000000000000000000000600052601160045260246000fd5b7f4e487b7100000000000000000000000000000000000000000000000000000000600052601260045260246000fd5b610a64816109c1565b8114610a6f57600080fd5b50565b610a7b816109f3565b8114610a8657600080fd5b5056fea26469706673582212200f528c21ac8b80f465da37ad196ae5398383930fd62417a60c0515688090effc64736f6c63430008000033",
  "immutableReferences": {},
  "source": "// SPDX-License-Identifier: MIT\npragma solidity ^0.8.0;\n\ncontract EnergyLossCalculator {\n    uint256 public constant PRICE_PER_KWH = 10; //    , .. 10  = 0.10 \n\n    struct EnergyTransfer {\n        address generator;\n        address consumer;\n        uint256 energyGenerated; //  \n        uint256 energyReceived; //  \n        uint256 energyLoss; //  \n        uint256 cost; //  \n    }\n\n    EnergyTransfer[] public energyTransfers;\n\n    event EnergyTransferLogged(\n        address indexed generator,\n        address indexed consumer,\n        uint256 energyGenerated,\n        uint256 energyReceived,\n        uint256 energyLoss,\n        uint256 cost\n    );\n\n    function calculateEnergyLoss(\n        address _generator,\n        address _consumer,\n        uint256 _energyGenerated,\n        uint256 _lossCoefficient\n    ) public {\n        require(_energyGenerated > 0, \"Energy generated must be greater than zero\");\n        require(_lossCoefficient >= 0 && _lossCoefficient <= 100, \"Loss coefficient must be between 0 and 100\");\n\n        uint256 energyLoss = (_energyGenerated * _lossCoefficient) / 100;\n        uint256 energyReceived = _energyGenerated - energyLoss;\n        uint256 cost = (energyReceived * PRICE_PER_KWH);\n\n        EnergyTransfer memory newTransfer = EnergyTransfer({\n            generator: _generator,\n            consumer: _consumer,\n            energyGenerated: _energyGenerated,\n            energyReceived: energyReceived,\n            energyLoss: energyLoss,\n            cost: cost\n        });\n\n        energyTransfers.push(newTransfer);\n\n        emit EnergyTransferLogged(_generator, _consumer, _energyGenerated, energyReceived, energyLoss, cost);\n    }\n\n    function getEnergyTransferCount() public view returns (uint256) {\n        return energyTransfers.length;\n    }\n\n    function getEnergyTransfer(uint256 _index) public view returns (\n        address generator,\n        address consumer,\n        uint256 energyGenerated,\n        uint256 energyReceived,\n        uint256 energyLoss,\n        uint256 cost\n    ) {\n        require(_index < energyTransfers.length, \"Invalid index\");\n        EnergyTransfer memory transfer = energyTransfers[_index];\n        return (\n            transfer.generator,\n            transfer.consumer,\n            transfer.energyGenerated,\n            transfer.energyReceived,\n            transfer.energyLoss,\n            transfer.cost\n        );\n    }\n}\n",
  "sourcePath": "/Users/abdisadykov/WebstormProjects/generatorFreelance/contracts/EnergyLossCalculator.sol",
  "compiler": {
    "name": "solc",
    "version": "0.8.0+commit.c7dfd78e.Emscripten.clang"
  },
  "schemaVersion": "3.4.16",
  "updatedAt": "2024-06-30T08:23:34.357Z",
  "networkType": "ethereum",
  "devdoc": {
    "kind": "dev",
    "methods": {},
    "version": 1
  },
  "userdoc": {
    "kind": "user",
    "methods": {},
    "version": 1
  }
}