{
  "contractName": "EnergyTransfer",
  "abi": [
    {
      "anonymous": false,
      "inputs": [
        {
          "indexed": true,
          "internalType": "address",
          "name": "from",
          "type": "address"
        },
        {
          "indexed": true,
          "internalType": "address",
          "name": "to",
          "type": "address"
        },
        {
          "indexed": false,
          "internalType": "uint256",
          "name": "value",
          "type": "uint256"
        }
      ],
      "name": "EtherSent",
      "type": "event"
    },
    {
      "anonymous": false,
      "inputs": [
        {
          "indexed": true,
          "internalType": "address",
          "name": "generator",
          "type": "address"
        },
        {
          "indexed": true,
          "internalType": "address",
          "name": "consumer",
          "type": "address"
        },
        {
          "indexed": false,
          "internalType": "uint256",
          "name": "energyGenerated",
          "type": "uint256"
        },
        {
          "indexed": false,
          "internalType": "uint256",
          "name": "energyReceived",
          "type": "uint256"
        },
        {
          "indexed": false,
          "internalType": "uint256",
          "name": "cost",
          "type": "uint256"
        }
      ],
      "name": "TransferLogged",
      "type": "event"
    },
    {
      "inputs": [],
      "name": "PRICE_PER_MWH",
      "outputs": [
        {
          "internalType": "uint256",
          "name": "",
          "type": "uint256"
        }
      ],
      "stateMutability": "view",
      "type": "function",
      "constant": true
    },
    {
      "inputs": [
        {
          "internalType": "uint256",
          "name": "",
          "type": "uint256"
        }
      ],
      "name": "transfers",
      "outputs": [
        {
          "internalType": "address",
          "name": "generator",
          "type": "address"
        },
        {
          "internalType": "address",
          "name": "consumer",
          "type": "address"
        },
        {
          "internalType": "uint256",
          "name": "energyGenerated",
          "type": "uint256"
        },
        {
          "internalType": "uint256",
          "name": "energyReceived",
          "type": "uint256"
        },
        {
          "internalType": "uint256",
          "name": "cost",
          "type": "uint256"
        }
      ],
      "stateMutability": "view",
      "type": "function",
      "constant": true
    },
    {
      "stateMutability": "payable",
      "type": "receive",
      "payable": true
    },
    {
      "inputs": [
        {
          "internalType": "address",
          "name": "_generator",
          "type": "address"
        },
        {
          "internalType": "address",
          "name": "_consumer",
          "type": "address"
        },
        {
          "internalType": "uint256",
          "name": "_energyGenerated",
          "type": "uint256"
        },
        {
          "internalType": "uint256",
          "name": "_lossCoefficient",
          "type": "uint256"
        },
        {
          "internalType": "uint256",
          "name": "_costInEther",
          "type": "uint256"
        }
      ],
      "name": "logEnergyTransfer",
      "outputs": [],
      "stateMutability": "payable",
      "type": "function",
      "payable": true
    },
    {
      "inputs": [],
      "name": "getTransferCount",
      "outputs": [
        {
          "internalType": "uint256",
          "name": "",
          "type": "uint256"
        }
      ],
      "stateMutability": "view",
      "type": "function",
      "constant": true
    },
    {
      "inputs": [
        {
          "internalType": "uint256",
          "name": "_index",
          "type": "uint256"
        }
      ],
      "name": "getTransfer",
      "outputs": [
        {
          "internalType": "address",
          "name": "generator",
          "type": "address"
        },
        {
          "internalType": "address",
          "name": "consumer",
          "type": "address"
        },
        {
          "internalType": "uint256",
          "name": "energyGenerated",
          "type": "uint256"
        },
        {
          "internalType": "uint256",
          "name": "energyReceived",
          "type": "uint256"
        },
        {
          "internalType": "uint256",
          "name": "cost",
          "type": "uint256"
        }
      ],
      "stateMutability": "view",
      "type": "function",
      "constant": true
    },
    {
      "inputs": [
        {
          "internalType": "address",
          "name": "_address",
          "type": "address"
        }
      ],
      "name": "getTransfersByAddress",
      "outputs": [
        {
          "components": [
            {
              "internalType": "address",
              "name": "generator",
              "type": "address"
            },
            {
              "internalType": "address",
              "name": "consumer",
              "type": "address"
            },
            {
              "internalType": "uint256",
              "name": "energyGenerated",
              "type": "uint256"
            },
            {
              "internalType": "uint256",
              "name": "energyReceived",
              "type": "uint256"
            },
            {
              "internalType": "uint256",
              "name": "cost",
              "type": "uint256"
            }
          ],
          "internalType": "struct EnergyTransfer.Transfer[]",
          "name": "",
          "type": "tuple[]"
        }
      ],
      "stateMutability": "view",
      "type": "function",
      "constant": true
    }
  ],
  "bytecode": "0x608060405234801561001057600080fd5b506113ff806100206000396000f3fe6080604052600436106100595760003560e01c8063040e55f5146100655780635699bd7a146100905780639377d711146100ac5780639a718e17146100ed578063c16fe90714610118578063d519107e1461015957610060565b3661006057005b600080fd5b34801561007157600080fd5b5061007a610196565b604051610087919061115d565b60405180910390f35b6100aa60048036038101906100a59190610d02565b6101a2565b005b3480156100b857600080fd5b506100d360048036038101906100ce9190610d79565b61045d565b6040516100e4959493929190611048565b60405180910390f35b3480156100f957600080fd5b506101026104e3565b60405161010f919061115d565b60405180910390f35b34801561012457600080fd5b5061013f600480360381019061013a9190610d79565b6104e9565b604051610150959493929190611048565b60405180910390f35b34801561016557600080fd5b50610180600480360381019061017b9190610cd9565b610684565b60405161018d919061109b565b60405180910390f35b60008080549050905090565b600083116101e5576040517f08c379a00000000000000000000000000000000000000000000000000000000081526004016101dc906110fd565b60405180910390fd5b600082101580156101f7575060648211155b610236576040517f08c379a000000000000000000000000000000000000000000000000000000000815260040161022d9061111d565b60405180910390fd5b600060648361024591906111f9565b9050600081856102559190611284565b905060006159d882610267919061122a565b9050833410156102ac576040517f08c379a00000000000000000000000000000000000000000000000000000000081526004016102a3906110dd565b60405180910390fd5b60006040518060a001604052808a73ffffffffffffffffffffffffffffffffffffffff1681526020018973ffffffffffffffffffffffffffffffffffffffff168152602001888152602001848152602001838152509050600081908060018154018082558091505060019003906000526020600020906005020160009091909190915060008201518160000160006101000a81548173ffffffffffffffffffffffffffffffffffffffff021916908373ffffffffffffffffffffffffffffffffffffffff16021790555060208201518160010160006101000a81548173ffffffffffffffffffffffffffffffffffffffff021916908373ffffffffffffffffffffffffffffffffffffffff16021790555060408201518160020155606082015181600301556080820151816004015550508773ffffffffffffffffffffffffffffffffffffffff168973ffffffffffffffffffffffffffffffffffffffff167ffda3a173998751d4dca4d16e10b92a9081d4c3704819b8649ff4a17f9e94ca1b89868660405161043e93929190611178565b60405180910390a3610451888a87610b58565b50505050505050505050565b6000818154811061046d57600080fd5b90600052602060002090600502016000915090508060000160009054906101000a900473ffffffffffffffffffffffffffffffffffffffff16908060010160009054906101000a900473ffffffffffffffffffffffffffffffffffffffff16908060020154908060030154908060040154905085565b6159d881565b600080600080600080805490508610610537576040517f08c379a000000000000000000000000000000000000000000000000000000000815260040161052e906110bd565b60405180910390fd5b6000808781548110610572577f4e487b7100000000000000000000000000000000000000000000000000000000600052603260045260246000fd5b90600052602060002090600502016040518060a00160405290816000820160009054906101000a900473ffffffffffffffffffffffffffffffffffffffff1673ffffffffffffffffffffffffffffffffffffffff1673ffffffffffffffffffffffffffffffffffffffff1681526020016001820160009054906101000a900473ffffffffffffffffffffffffffffffffffffffff1673ffffffffffffffffffffffffffffffffffffffff1673ffffffffffffffffffffffffffffffffffffffff1681526020016002820154815260200160038201548152602001600482015481525050905080600001518160200151826040015183606001518460800151955095509550955095505091939590929450565b60606000805b6000805490508110156107f9578373ffffffffffffffffffffffffffffffffffffffff16600082815481106106e8577f4e487b7100000000000000000000000000000000000000000000000000000000600052603260045260246000fd5b906000526020600020906005020160000160009054906101000a900473ffffffffffffffffffffffffffffffffffffffff1673ffffffffffffffffffffffffffffffffffffffff1614806107d257508373ffffffffffffffffffffffffffffffffffffffff1660008281548110610788577f4e487b7100000000000000000000000000000000000000000000000000000000600052603260045260246000fd5b906000526020600020906005020160010160009054906101000a900473ffffffffffffffffffffffffffffffffffffffff1673ffffffffffffffffffffffffffffffffffffffff16145b156107e65781806107e2906112f4565b9250505b80806107f1906112f4565b91505061068a565b5060008167ffffffffffffffff81111561083c577f4e487b7100000000000000000000000000000000000000000000000000000000600052604160045260246000fd5b60405190808252806020026020018201604052801561087557816020015b610862610c54565b81526020019060019003908161085a5790505b5090506000805b600080549050811015610b4c578573ffffffffffffffffffffffffffffffffffffffff16600082815481106108da577f4e487b7100000000000000000000000000000000000000000000000000000000600052603260045260246000fd5b906000526020600020906005020160000160009054906101000a900473ffffffffffffffffffffffffffffffffffffffff1673ffffffffffffffffffffffffffffffffffffffff1614806109c457508573ffffffffffffffffffffffffffffffffffffffff166000828154811061097a577f4e487b7100000000000000000000000000000000000000000000000000000000600052603260045260246000fd5b906000526020600020906005020160010160009054906101000a900473ffffffffffffffffffffffffffffffffffffffff1673ffffffffffffffffffffffffffffffffffffffff16145b15610b395760008181548110610a03577f4e487b7100000000000000000000000000000000000000000000000000000000600052603260045260246000fd5b90600052602060002090600502016040518060a00160405290816000820160009054906101000a900473ffffffffffffffffffffffffffffffffffffffff1673ffffffffffffffffffffffffffffffffffffffff1673ffffffffffffffffffffffffffffffffffffffff1681526020016001820160009054906101000a900473ffffffffffffffffffffffffffffffffffffffff1673ffffffffffffffffffffffffffffffffffffffff1673ffffffffffffffffffffffffffffffffffffffff1681526020016002820154815260200160038201548152602001600482015481525050838381518110610b1f577f4e487b7100000000000000000000000000000000000000000000000000000000600052603260045260246000fd5b60200260200101819052508180610b35906112f4565b9250505b8080610b44906112f4565b91505061087c565b50819350505050919050565b600081471015610b9d576040517f08c379a0000000000000000000000000000000000000000000000000000000008152600401610b949061113d565b60405180910390fd5b8273ffffffffffffffffffffffffffffffffffffffff166108fc839081150290604051600060405180830381858888f19350505050158015610be3573d6000803e3d6000fd5b508273ffffffffffffffffffffffffffffffffffffffff168473ffffffffffffffffffffffffffffffffffffffff167f10d1a5dc650a65cd6625a330078a13ee62c6ec85b36e94bdf57e4d3188ca673884604051610c41919061115d565b60405180910390a3600190509392505050565b6040518060a00160405280600073ffffffffffffffffffffffffffffffffffffffff168152602001600073ffffffffffffffffffffffffffffffffffffffff1681526020016000815260200160008152602001600081525090565b600081359050610cbe8161139b565b92915050565b600081359050610cd3816113b2565b92915050565b600060208284031215610ceb57600080fd5b6000610cf984828501610caf565b91505092915050565b600080600080600060a08688031215610d1a57600080fd5b6000610d2888828901610caf565b9550506020610d3988828901610caf565b9450506040610d4a88828901610cc4565b9350506060610d5b88828901610cc4565b9250506080610d6c88828901610cc4565b9150509295509295909350565b600060208284031215610d8b57600080fd5b6000610d9984828501610cc4565b91505092915050565b6000610dae8383610fc2565b60a08301905092915050565b610dc3816112b8565b82525050565b610dd2816112b8565b82525050565b6000610de3826111bf565b610ded81856111d7565b9350610df8836111af565b8060005b83811015610e29578151610e108882610da2565b9750610e1b836111ca565b925050600181019050610dfc565b5085935050505092915050565b6000610e43600d836111e8565b91507f496e76616c696420696e646578000000000000000000000000000000000000006000830152602082019050919050565b6000610e836017836111e8565b91507f496e73756666696369656e742045746865722073656e740000000000000000006000830152602082019050919050565b6000610ec3602a836111e8565b91507f456e657267792067656e657261746564206d757374206265206772656174657260008301527f207468616e207a65726f000000000000000000000000000000000000000000006020830152604082019050919050565b6000610f29602a836111e8565b91507f4c6f737320636f656666696369656e74206d757374206265206265747765656e60008301527f203020616e6420313030000000000000000000000000000000000000000000006020830152604082019050919050565b6000610f8f601d836111e8565b91507f496e73756666696369656e7420636f6e74726163742062616c616e63650000006000830152602082019050919050565b60a082016000820151610fd86000850182610dba565b506020820151610feb6020850182610dba565b506040820151610ffe604085018261102a565b506060820151611011606085018261102a565b506080820151611024608085018261102a565b50505050565b611033816112ea565b82525050565b611042816112ea565b82525050565b600060a08201905061105d6000830188610dc9565b61106a6020830187610dc9565b6110776040830186611039565b6110846060830185611039565b6110916080830184611039565b9695505050505050565b600060208201905081810360008301526110b58184610dd8565b905092915050565b600060208201905081810360008301526110d681610e36565b9050919050565b600060208201905081810360008301526110f681610e76565b9050919050565b6000602082019050818103600083015261111681610eb6565b9050919050565b6000602082019050818103600083015261113681610f1c565b9050919050565b6000602082019050818103600083015261115681610f82565b9050919050565b60006020820190506111726000830184611039565b92915050565b600060608201905061118d6000830186611039565b61119a6020830185611039565b6111a76040830184611039565b949350505050565b6000819050602082019050919050565b600081519050919050565b6000602082019050919050565b600082825260208201905092915050565b600082825260208201905092915050565b6000611204826112ea565b915061120f836112ea565b92508261121f5761121e61136c565b5b828204905092915050565b6000611235826112ea565b9150611240836112ea565b9250817fffffffffffffffffffffffffffffffffffffffffffffffffffffffffffffffff04831182151516156112795761127861133d565b5b828202905092915050565b600061128f826112ea565b915061129a836112ea565b9250828210156112ad576112ac61133d565b5b828203905092915050565b60006112c3826112ca565b9050919050565b600073ffffffffffffffffffffffffffffffffffffffff82169050919050565b6000819050919050565b60006112ff826112ea565b91507fffffffffffffffffffffffffffffffffffffffffffffffffffffffffffffffff8214156113325761133161133d565b5b600182019050919050565b7f4e487b7100000000000000000000000000000000000000000000000000000000600052601160045260246000fd5b7f4e487b7100000000000000000000000000000000000000000000000000000000600052601260045260246000fd5b6113a4816112b8565b81146113af57600080fd5b50565b6113bb816112ea565b81146113c657600080fd5b5056fea264697066735822122097e08cce4d49192da24af42db2587cfcc8be031a1cf5556ee9fb4107012d52c064736f6c63430008000033",
  "immutableReferences": {},
  "source": "// SPDX-License-Identifier: MIT\r\npragma solidity ^0.8.0;\r\n\r\ncontract EnergyTransfer {\r\n    uint256 public constant PRICE_PER_MWH = 23000; //    , .. 10  = 0.10 \r\n\r\n    struct Transfer {\r\n        address generator;\r\n        address consumer;\r\n        uint256 energyGenerated; //  \r\n        uint256 energyReceived; //  \r\n        uint256 cost; //  \r\n    }\r\n\r\n    Transfer[] public transfers;\r\n\r\n    event TransferLogged(\r\n        address indexed generator,\r\n        address indexed consumer,\r\n        uint256 energyGenerated,\r\n        uint256 energyReceived,\r\n        uint256 cost\r\n    );\r\n\r\n    event EtherSent(\r\n        address indexed from,\r\n        address indexed to,\r\n        uint256 value\r\n    );\r\n\r\n    function logEnergyTransfer(\r\n        address _generator,\r\n        address _consumer,\r\n        uint256 _energyGenerated,\r\n        uint256 _lossCoefficient,\r\n        uint256 _costInEther\r\n    ) public payable {\r\n        require(_energyGenerated > 0, \"Energy generated must be greater than zero\");\r\n        require(_lossCoefficient >= 0 && _lossCoefficient <= 100, \"Loss coefficient must be between 0 and 100\");\r\n\r\n        uint256 energyLoss = (_lossCoefficient) / 100;\r\n        uint256 energyReceived = _energyGenerated - energyLoss;\r\n        uint256 cost = (energyReceived * PRICE_PER_MWH);\r\n\r\n        require(msg.value >= _costInEther, \"Insufficient Ether sent\");\r\n\r\n        Transfer memory newTransfer = Transfer({\r\n            generator: _generator,\r\n            consumer: _consumer,\r\n            energyGenerated: _energyGenerated,\r\n            energyReceived: energyReceived,\r\n            cost: cost\r\n        });\r\n\r\n        transfers.push(newTransfer);\r\n\r\n        emit TransferLogged(_generator, _consumer, _energyGenerated, energyReceived, cost);\r\n\r\n        sendEther(_consumer, _generator, _costInEther);\r\n    }\r\n\r\n    function getTransferCount() public view returns (uint256) {\r\n        return transfers.length;\r\n    }\r\n\r\n    function getTransfer(uint256 _index) public view returns (\r\n        address generator,\r\n        address consumer,\r\n        uint256 energyGenerated,\r\n        uint256 energyReceived,\r\n        uint256 cost\r\n    ) {\r\n        require(_index < transfers.length, \"Invalid index\");\r\n        Transfer memory transfer = transfers[_index];\r\n        return (\r\n            transfer.generator,\r\n            transfer.consumer,\r\n            transfer.energyGenerated,\r\n            transfer.energyReceived,\r\n            transfer.cost\r\n        );\r\n    }\r\n\r\n    function getTransfersByAddress(address _address) public view returns (Transfer[] memory) {\r\n        uint256 count = 0;\r\n        for (uint256 i = 0; i < transfers.length; i++) {\r\n            if (transfers[i].generator == _address || transfers[i].consumer == _address) {\r\n                count++;\r\n            }\r\n        }\r\n\r\n        Transfer[] memory result = new Transfer[](count);\r\n        uint256 j = 0;\r\n        for (uint256 i = 0; i < transfers.length; i++) {\r\n            if (transfers[i].generator == _address || transfers[i].consumer == _address) {\r\n                result[j] = transfers[i];\r\n                j++;\r\n            }\r\n        }\r\n\r\n        return result;\r\n    }\r\n\r\n    function sendEther(address _consumer, address _generator, uint256 costInEther) internal returns (bool success) {\r\n        require(address(this).balance >= costInEther, \"Insufficient contract balance\");\r\n\r\n        payable(_generator).transfer(costInEther);\r\n\r\n        emit EtherSent(_consumer, _generator, costInEther);\r\n        return true;\r\n    }\r\n\r\n    receive() external payable {}\r\n}\r\n",
  "sourcePath": "E:\\frontEnd\\freelanceTest\\generatorFreelance\\contracts\\EnergyTransfer.sol",
  "compiler": {
    "name": "solc",
    "version": "0.8.0+commit.c7dfd78e.Emscripten.clang"
  },
  "schemaVersion": "3.4.16",
  "updatedAt": "2024-07-13T19:57:15.978Z",
  "networkType": "ethereum",
  "devdoc": {
    "kind": "dev",
    "methods": {},
    "version": 1
  },
  "userdoc": {
    "kind": "user",
    "methods": {},
    "version": 1
  }
}