{
  "contractName": "EnergyTransfer",
  "abi": [
    {
      "anonymous": false,
      "inputs": [
        {
          "indexed": true,
          "internalType": "address",
          "name": "from",
          "type": "address"
        },
        {
          "indexed": true,
          "internalType": "address",
          "name": "to",
          "type": "address"
        },
        {
          "indexed": false,
          "internalType": "uint256",
          "name": "value",
          "type": "uint256"
        }
      ],
      "name": "EtherSent",
      "type": "event"
    },
    {
      "anonymous": false,
      "inputs": [
        {
          "indexed": true,
          "internalType": "address",
          "name": "generator",
          "type": "address"
        },
        {
          "indexed": true,
          "internalType": "address",
          "name": "consumer",
          "type": "address"
        },
        {
          "indexed": false,
          "internalType": "uint256",
          "name": "energyGenerated",
          "type": "uint256"
        },
        {
          "indexed": false,
          "internalType": "uint256",
          "name": "energyReceived",
          "type": "uint256"
        },
        {
          "indexed": false,
          "internalType": "uint256",
          "name": "cost",
          "type": "uint256"
        }
      ],
      "name": "TransferLogged",
      "type": "event"
    },
    {
      "inputs": [],
      "name": "ETHER_PRICE_IN_TENGE",
      "outputs": [
        {
          "internalType": "uint256",
          "name": "",
          "type": "uint256"
        }
      ],
      "stateMutability": "view",
      "type": "function",
      "constant": true
    },
    {
      "inputs": [],
      "name": "PRICE_PER_MWH",
      "outputs": [
        {
          "internalType": "uint256",
          "name": "",
          "type": "uint256"
        }
      ],
      "stateMutability": "view",
      "type": "function",
      "constant": true
    },
    {
      "inputs": [
        {
          "internalType": "uint256",
          "name": "",
          "type": "uint256"
        }
      ],
      "name": "transfers",
      "outputs": [
        {
          "internalType": "address",
          "name": "generator",
          "type": "address"
        },
        {
          "internalType": "address",
          "name": "consumer",
          "type": "address"
        },
        {
          "internalType": "uint256",
          "name": "energyGenerated",
          "type": "uint256"
        },
        {
          "internalType": "uint256",
          "name": "energyReceived",
          "type": "uint256"
        },
        {
          "internalType": "uint256",
          "name": "cost",
          "type": "uint256"
        }
      ],
      "stateMutability": "view",
      "type": "function",
      "constant": true
    },
    {
      "stateMutability": "payable",
      "type": "receive",
      "payable": true
    },
    {
      "inputs": [
        {
          "internalType": "address",
          "name": "_generator",
          "type": "address"
        },
        {
          "internalType": "address",
          "name": "_consumer",
          "type": "address"
        },
        {
          "internalType": "uint256",
          "name": "_energyGenerated",
          "type": "uint256"
        },
        {
          "internalType": "uint256",
          "name": "_lossCoefficient",
          "type": "uint256"
        }
      ],
      "name": "logEnergyTransfer",
      "outputs": [],
      "stateMutability": "payable",
      "type": "function",
      "payable": true
    },
    {
      "inputs": [],
      "name": "getTransferCount",
      "outputs": [
        {
          "internalType": "uint256",
          "name": "",
          "type": "uint256"
        }
      ],
      "stateMutability": "view",
      "type": "function",
      "constant": true
    },
    {
      "inputs": [
        {
          "internalType": "uint256",
          "name": "_index",
          "type": "uint256"
        }
      ],
      "name": "getTransfer",
      "outputs": [
        {
          "internalType": "address",
          "name": "generator",
          "type": "address"
        },
        {
          "internalType": "address",
          "name": "consumer",
          "type": "address"
        },
        {
          "internalType": "uint256",
          "name": "energyGenerated",
          "type": "uint256"
        },
        {
          "internalType": "uint256",
          "name": "energyReceived",
          "type": "uint256"
        },
        {
          "internalType": "uint256",
          "name": "cost",
          "type": "uint256"
        }
      ],
      "stateMutability": "view",
      "type": "function",
      "constant": true
    },
    {
      "inputs": [
        {
          "internalType": "address",
          "name": "_address",
          "type": "address"
        }
      ],
      "name": "getTransfersByAddress",
      "outputs": [
        {
          "components": [
            {
              "internalType": "address",
              "name": "generator",
              "type": "address"
            },
            {
              "internalType": "address",
              "name": "consumer",
              "type": "address"
            },
            {
              "internalType": "uint256",
              "name": "energyGenerated",
              "type": "uint256"
            },
            {
              "internalType": "uint256",
              "name": "energyReceived",
              "type": "uint256"
            },
            {
              "internalType": "uint256",
              "name": "cost",
              "type": "uint256"
            }
          ],
          "internalType": "struct EnergyTransfer.Transfer[]",
          "name": "",
          "type": "tuple[]"
        }
      ],
      "stateMutability": "view",
      "type": "function",
      "constant": true
    }
  ],
  "bytecode": "0x608060405234801561001057600080fd5b50611469806100206000396000f3fe6080604052600436106100745760003560e01c80639a718e171161004e5780639a718e1714610108578063c16fe90714610133578063d519107e14610174578063e4cc3dd7146101b15761007b565b8063040e55f5146100805780631753c8f3146100ab5780639377d711146100c75761007b565b3661007b57005b600080fd5b34801561008c57600080fd5b506100956101dc565b6040516100a291906111c7565b60405180910390f35b6100c560048036038101906100c09190610d80565b6101e8565b005b3480156100d357600080fd5b506100ee60048036038101906100e99190610de3565b6104d4565b6040516100ff9594939291906110b2565b60405180910390f35b34801561011457600080fd5b5061011d61055a565b60405161012a91906111c7565b60405180910390f35b34801561013f57600080fd5b5061015a60048036038101906101559190610de3565b610560565b60405161016b9594939291906110b2565b60405180910390f35b34801561018057600080fd5b5061019b60048036038101906101969190610d57565b6106fb565b6040516101a89190611105565b60405180910390f35b3480156101bd57600080fd5b506101c6610bcf565b6040516101d391906111c7565b60405180910390f35b60008080549050905090565b6000821161022b576040517f08c379a000000000000000000000000000000000000000000000000000000000815260040161022290611167565b60405180910390fd5b6000811015801561023d575060648111155b61027c576040517f08c379a000000000000000000000000000000000000000000000000000000000815260040161027390611187565b60405180910390fd5b60006064828461028c9190611294565b6102969190611263565b9050600081846102a691906112ee565b905060006159d8826102b89190611294565b905060006215e741670de0b6b3a7640000836102d49190611294565b6102de9190611263565b905080341015610323576040517f08c379a000000000000000000000000000000000000000000000000000000000815260040161031a90611147565b60405180910390fd5b60006040518060a001604052808a73ffffffffffffffffffffffffffffffffffffffff1681526020018973ffffffffffffffffffffffffffffffffffffffff168152602001888152602001858152602001848152509050600081908060018154018082558091505060019003906000526020600020906005020160009091909190915060008201518160000160006101000a81548173ffffffffffffffffffffffffffffffffffffffff021916908373ffffffffffffffffffffffffffffffffffffffff16021790555060208201518160010160006101000a81548173ffffffffffffffffffffffffffffffffffffffff021916908373ffffffffffffffffffffffffffffffffffffffff16021790555060408201518160020155606082015181600301556080820151816004015550508773ffffffffffffffffffffffffffffffffffffffff168973ffffffffffffffffffffffffffffffffffffffff167ffda3a173998751d4dca4d16e10b92a9081d4c3704819b8649ff4a17f9e94ca1b8987876040516104b5939291906111e2565b60405180910390a36104c8888a84610bd6565b50505050505050505050565b600081815481106104e457600080fd5b90600052602060002090600502016000915090508060000160009054906101000a900473ffffffffffffffffffffffffffffffffffffffff16908060010160009054906101000a900473ffffffffffffffffffffffffffffffffffffffff16908060020154908060030154908060040154905085565b6159d881565b6000806000806000808054905086106105ae576040517f08c379a00000000000000000000000000000000000000000000000000000000081526004016105a590611127565b60405180910390fd5b60008087815481106105e9577f4e487b7100000000000000000000000000000000000000000000000000000000600052603260045260246000fd5b90600052602060002090600502016040518060a00160405290816000820160009054906101000a900473ffffffffffffffffffffffffffffffffffffffff1673ffffffffffffffffffffffffffffffffffffffff1673ffffffffffffffffffffffffffffffffffffffff1681526020016001820160009054906101000a900473ffffffffffffffffffffffffffffffffffffffff1673ffffffffffffffffffffffffffffffffffffffff1673ffffffffffffffffffffffffffffffffffffffff1681526020016002820154815260200160038201548152602001600482015481525050905080600001518160200151826040015183606001518460800151955095509550955095505091939590929450565b60606000805b600080549050811015610870578373ffffffffffffffffffffffffffffffffffffffff166000828154811061075f577f4e487b7100000000000000000000000000000000000000000000000000000000600052603260045260246000fd5b906000526020600020906005020160000160009054906101000a900473ffffffffffffffffffffffffffffffffffffffff1673ffffffffffffffffffffffffffffffffffffffff16148061084957508373ffffffffffffffffffffffffffffffffffffffff16600082815481106107ff577f4e487b7100000000000000000000000000000000000000000000000000000000600052603260045260246000fd5b906000526020600020906005020160010160009054906101000a900473ffffffffffffffffffffffffffffffffffffffff1673ffffffffffffffffffffffffffffffffffffffff16145b1561085d5781806108599061135e565b9250505b80806108689061135e565b915050610701565b5060008167ffffffffffffffff8111156108b3577f4e487b7100000000000000000000000000000000000000000000000000000000600052604160045260246000fd5b6040519080825280602002602001820160405280156108ec57816020015b6108d9610cd2565b8152602001906001900390816108d15790505b5090506000805b600080549050811015610bc3578573ffffffffffffffffffffffffffffffffffffffff1660008281548110610951577f4e487b7100000000000000000000000000000000000000000000000000000000600052603260045260246000fd5b906000526020600020906005020160000160009054906101000a900473ffffffffffffffffffffffffffffffffffffffff1673ffffffffffffffffffffffffffffffffffffffff161480610a3b57508573ffffffffffffffffffffffffffffffffffffffff16600082815481106109f1577f4e487b7100000000000000000000000000000000000000000000000000000000600052603260045260246000fd5b906000526020600020906005020160010160009054906101000a900473ffffffffffffffffffffffffffffffffffffffff1673ffffffffffffffffffffffffffffffffffffffff16145b15610bb05760008181548110610a7a577f4e487b7100000000000000000000000000000000000000000000000000000000600052603260045260246000fd5b90600052602060002090600502016040518060a00160405290816000820160009054906101000a900473ffffffffffffffffffffffffffffffffffffffff1673ffffffffffffffffffffffffffffffffffffffff1673ffffffffffffffffffffffffffffffffffffffff1681526020016001820160009054906101000a900473ffffffffffffffffffffffffffffffffffffffff1673ffffffffffffffffffffffffffffffffffffffff1673ffffffffffffffffffffffffffffffffffffffff1681526020016002820154815260200160038201548152602001600482015481525050838381518110610b96577f4e487b7100000000000000000000000000000000000000000000000000000000600052603260045260246000fd5b60200260200101819052508180610bac9061135e565b9250505b8080610bbb9061135e565b9150506108f3565b50819350505050919050565b6215e74181565b600081471015610c1b576040517f08c379a0000000000000000000000000000000000000000000000000000000008152600401610c12906111a7565b60405180910390fd5b8273ffffffffffffffffffffffffffffffffffffffff166108fc839081150290604051600060405180830381858888f19350505050158015610c61573d6000803e3d6000fd5b508273ffffffffffffffffffffffffffffffffffffffff168473ffffffffffffffffffffffffffffffffffffffff167f10d1a5dc650a65cd6625a330078a13ee62c6ec85b36e94bdf57e4d3188ca673884604051610cbf91906111c7565b60405180910390a3600190509392505050565b6040518060a00160405280600073ffffffffffffffffffffffffffffffffffffffff168152602001600073ffffffffffffffffffffffffffffffffffffffff1681526020016000815260200160008152602001600081525090565b600081359050610d3c81611405565b92915050565b600081359050610d518161141c565b92915050565b600060208284031215610d6957600080fd5b6000610d7784828501610d2d565b91505092915050565b60008060008060808587031215610d9657600080fd5b6000610da487828801610d2d565b9450506020610db587828801610d2d565b9350506040610dc687828801610d42565b9250506060610dd787828801610d42565b91505092959194509250565b600060208284031215610df557600080fd5b6000610e0384828501610d42565b91505092915050565b6000610e18838361102c565b60a08301905092915050565b610e2d81611322565b82525050565b610e3c81611322565b82525050565b6000610e4d82611229565b610e578185611241565b9350610e6283611219565b8060005b83811015610e93578151610e7a8882610e0c565b9750610e8583611234565b925050600181019050610e66565b5085935050505092915050565b6000610ead600d83611252565b91507f496e76616c696420696e646578000000000000000000000000000000000000006000830152602082019050919050565b6000610eed601783611252565b91507f496e73756666696369656e742045746865722073656e740000000000000000006000830152602082019050919050565b6000610f2d602a83611252565b91507f456e657267792067656e657261746564206d757374206265206772656174657260008301527f207468616e207a65726f000000000000000000000000000000000000000000006020830152604082019050919050565b6000610f93602a83611252565b91507f4c6f737320636f656666696369656e74206d757374206265206265747765656e60008301527f203020616e6420313030000000000000000000000000000000000000000000006020830152604082019050919050565b6000610ff9601d83611252565b91507f496e73756666696369656e7420636f6e74726163742062616c616e63650000006000830152602082019050919050565b60a0820160008201516110426000850182610e24565b5060208201516110556020850182610e24565b5060408201516110686040850182611094565b50606082015161107b6060850182611094565b50608082015161108e6080850182611094565b50505050565b61109d81611354565b82525050565b6110ac81611354565b82525050565b600060a0820190506110c76000830188610e33565b6110d46020830187610e33565b6110e160408301866110a3565b6110ee60608301856110a3565b6110fb60808301846110a3565b9695505050505050565b6000602082019050818103600083015261111f8184610e42565b905092915050565b6000602082019050818103600083015261114081610ea0565b9050919050565b6000602082019050818103600083015261116081610ee0565b9050919050565b6000602082019050818103600083015261118081610f20565b9050919050565b600060208201905081810360008301526111a081610f86565b9050919050565b600060208201905081810360008301526111c081610fec565b9050919050565b60006020820190506111dc60008301846110a3565b92915050565b60006060820190506111f760008301866110a3565b61120460208301856110a3565b61121160408301846110a3565b949350505050565b6000819050602082019050919050565b600081519050919050565b6000602082019050919050565b600082825260208201905092915050565b600082825260208201905092915050565b600061126e82611354565b915061127983611354565b925082611289576112886113d6565b5b828204905092915050565b600061129f82611354565b91506112aa83611354565b9250817fffffffffffffffffffffffffffffffffffffffffffffffffffffffffffffffff04831182151516156112e3576112e26113a7565b5b828202905092915050565b60006112f982611354565b915061130483611354565b925082821015611317576113166113a7565b5b828203905092915050565b600061132d82611334565b9050919050565b600073ffffffffffffffffffffffffffffffffffffffff82169050919050565b6000819050919050565b600061136982611354565b91507fffffffffffffffffffffffffffffffffffffffffffffffffffffffffffffffff82141561139c5761139b6113a7565b5b600182019050919050565b7f4e487b7100000000000000000000000000000000000000000000000000000000600052601160045260246000fd5b7f4e487b7100000000000000000000000000000000000000000000000000000000600052601260045260246000fd5b61140e81611322565b811461141957600080fd5b50565b61142581611354565b811461143057600080fd5b5056fea264697066735822122085abc4823cd46ee8247fc3042b939a8f928e358f8fd4c6e15a975fbf74fa6f3b64736f6c63430008000033",
  "immutableReferences": {},
  "source": "// SPDX-License-Identifier: MIT\npragma solidity ^0.8.0;\n\ncontract EnergyTransfer {\n    uint256 public constant PRICE_PER_MWH = 23000; //    , .. 10  = 0.10 \n    uint256 public constant ETHER_PRICE_IN_TENGE = 1435457; //    \n\n    struct Transfer {\n        address generator;\n        address consumer;\n        uint256 energyGenerated; //  \n        uint256 energyReceived; //  \n        uint256 cost; //  \n    }\n\n    Transfer[] public transfers;\n\n    event TransferLogged(\n        address indexed generator,\n        address indexed consumer,\n        uint256 energyGenerated,\n        uint256 energyReceived,\n        uint256 cost\n    );\n\n    event EtherSent(\n        address indexed from,\n        address indexed to,\n        uint256 value\n    );\n\n    function logEnergyTransfer(\n        address _generator,\n        address _consumer,\n        uint256 _energyGenerated,\n        uint256 _lossCoefficient\n    ) public payable {\n        require(_energyGenerated > 0, \"Energy generated must be greater than zero\");\n        require(_lossCoefficient >= 0 && _lossCoefficient <= 100, \"Loss coefficient must be between 0 and 100\");\n\n        uint256 energyLoss = (_energyGenerated * _lossCoefficient) / 100;\n        uint256 energyReceived = _energyGenerated - energyLoss;\n        uint256 cost = (energyReceived * PRICE_PER_MWH);\n        uint256 costInEther = (cost * 1 ether) / ETHER_PRICE_IN_TENGE;\n\n        require(msg.value >= costInEther, \"Insufficient Ether sent\");\n\n        Transfer memory newTransfer = Transfer({\n            generator: _generator,\n            consumer: _consumer,\n            energyGenerated: _energyGenerated,\n            energyReceived: energyReceived,\n            cost: cost\n        });\n\n        transfers.push(newTransfer);\n\n        emit TransferLogged(_generator, _consumer, _energyGenerated, energyReceived, cost);\n\n        sendEther(_consumer, _generator, costInEther);\n    }\n\n    function getTransferCount() public view returns (uint256) {\n        return transfers.length;\n    }\n\n    function getTransfer(uint256 _index) public view returns (\n        address generator,\n        address consumer,\n        uint256 energyGenerated,\n        uint256 energyReceived,\n        uint256 cost\n    ) {\n        require(_index < transfers.length, \"Invalid index\");\n        Transfer memory transfer = transfers[_index];\n        return (\n            transfer.generator,\n            transfer.consumer,\n            transfer.energyGenerated,\n            transfer.energyReceived,\n            transfer.cost\n        );\n    }\n\n    function getTransfersByAddress(address _address) public view returns (Transfer[] memory) {\n        uint256 count = 0;\n        for (uint256 i = 0; i < transfers.length; i++) {\n            if (transfers[i].generator == _address || transfers[i].consumer == _address) {\n                count++;\n            }\n        }\n\n        Transfer[] memory result = new Transfer[](count);\n        uint256 j = 0;\n        for (uint256 i = 0; i < transfers.length; i++) {\n            if (transfers[i].generator == _address || transfers[i].consumer == _address) {\n                result[j] = transfers[i];\n                j++;\n            }\n        }\n\n        return result;\n    }\n\n    function sendEther(address _consumer, address _generator, uint256 costInEther) internal returns (bool success) {\n        require(address(this).balance >= costInEther, \"Insufficient contract balance\");\n\n        payable(_generator).transfer(costInEther);\n\n        emit EtherSent(_consumer, _generator, costInEther);\n        return true;\n    }\n\n    receive() external payable {}\n}\n",
  "sourcePath": "/Users/abdisadykov/WebstormProjects/generatorFreelance/contracts/EnergyTransfer.sol",
  "compiler": {
    "name": "solc",
    "version": "0.8.0+commit.c7dfd78e.Emscripten.clang"
  },
  "schemaVersion": "3.4.16",
  "updatedAt": "2024-07-08T09:04:51.040Z",
  "networkType": "ethereum",
  "devdoc": {
    "kind": "dev",
    "methods": {},
    "version": 1
  },
  "userdoc": {
    "kind": "user",
    "methods": {},
    "version": 1
  }
}