{
  "contractName": "EnergyTransfer",
  "abi": [
    {
      "anonymous": false,
      "inputs": [
        {
          "indexed": true,
          "internalType": "address",
          "name": "from",
          "type": "address"
        },
        {
          "indexed": true,
          "internalType": "address",
          "name": "to",
          "type": "address"
        },
        {
          "indexed": false,
          "internalType": "uint256",
          "name": "value",
          "type": "uint256"
        }
      ],
      "name": "EtherSent",
      "type": "event"
    },
    {
      "anonymous": false,
      "inputs": [
        {
          "indexed": true,
          "internalType": "address",
          "name": "generator",
          "type": "address"
        },
        {
          "indexed": true,
          "internalType": "address",
          "name": "consumer",
          "type": "address"
        },
        {
          "indexed": false,
          "internalType": "uint256",
          "name": "energyGenerated",
          "type": "uint256"
        },
        {
          "indexed": false,
          "internalType": "uint256",
          "name": "energyReceived",
          "type": "uint256"
        },
        {
          "indexed": false,
          "internalType": "uint256",
          "name": "cost",
          "type": "uint256"
        }
      ],
      "name": "TransferLogged",
      "type": "event"
    },
    {
      "inputs": [],
      "name": "ETHER_PRICE_IN_TENGE",
      "outputs": [
        {
          "internalType": "uint256",
          "name": "",
          "type": "uint256"
        }
      ],
      "stateMutability": "view",
      "type": "function",
      "constant": true
    },
    {
      "inputs": [],
      "name": "PRICE_PER_MWH",
      "outputs": [
        {
          "internalType": "uint256",
          "name": "",
          "type": "uint256"
        }
      ],
      "stateMutability": "view",
      "type": "function",
      "constant": true
    },
    {
      "inputs": [
        {
          "internalType": "uint256",
          "name": "",
          "type": "uint256"
        }
      ],
      "name": "transfers",
      "outputs": [
        {
          "internalType": "address",
          "name": "generator",
          "type": "address"
        },
        {
          "internalType": "address",
          "name": "consumer",
          "type": "address"
        },
        {
          "internalType": "uint256",
          "name": "energyGenerated",
          "type": "uint256"
        },
        {
          "internalType": "uint256",
          "name": "energyReceived",
          "type": "uint256"
        },
        {
          "internalType": "uint256",
          "name": "cost",
          "type": "uint256"
        }
      ],
      "stateMutability": "view",
      "type": "function",
      "constant": true
    },
    {
      "stateMutability": "payable",
      "type": "receive",
      "payable": true
    },
    {
      "inputs": [
        {
          "internalType": "address",
          "name": "_generator",
          "type": "address"
        },
        {
          "internalType": "address",
          "name": "_consumer",
          "type": "address"
        },
        {
          "internalType": "uint256",
          "name": "_energyGenerated",
          "type": "uint256"
        },
        {
          "internalType": "uint256",
          "name": "_lossCoefficient",
          "type": "uint256"
        }
      ],
      "name": "logEnergyTransfer",
      "outputs": [],
      "stateMutability": "payable",
      "type": "function",
      "payable": true
    },
    {
      "inputs": [],
      "name": "getTransferCount",
      "outputs": [
        {
          "internalType": "uint256",
          "name": "",
          "type": "uint256"
        }
      ],
      "stateMutability": "view",
      "type": "function",
      "constant": true
    },
    {
      "inputs": [
        {
          "internalType": "uint256",
          "name": "_index",
          "type": "uint256"
        }
      ],
      "name": "getTransfer",
      "outputs": [
        {
          "internalType": "address",
          "name": "generator",
          "type": "address"
        },
        {
          "internalType": "address",
          "name": "consumer",
          "type": "address"
        },
        {
          "internalType": "uint256",
          "name": "energyGenerated",
          "type": "uint256"
        },
        {
          "internalType": "uint256",
          "name": "energyReceived",
          "type": "uint256"
        },
        {
          "internalType": "uint256",
          "name": "cost",
          "type": "uint256"
        }
      ],
      "stateMutability": "view",
      "type": "function",
      "constant": true
    },
    {
      "inputs": [
        {
          "internalType": "address",
          "name": "_address",
          "type": "address"
        }
      ],
      "name": "getTransfersByAddress",
      "outputs": [
        {
          "components": [
            {
              "internalType": "address",
              "name": "generator",
              "type": "address"
            },
            {
              "internalType": "address",
              "name": "consumer",
              "type": "address"
            },
            {
              "internalType": "uint256",
              "name": "energyGenerated",
              "type": "uint256"
            },
            {
              "internalType": "uint256",
              "name": "energyReceived",
              "type": "uint256"
            },
            {
              "internalType": "uint256",
              "name": "cost",
              "type": "uint256"
            }
          ],
          "internalType": "struct EnergyTransfer.Transfer[]",
          "name": "",
          "type": "tuple[]"
        }
      ],
      "stateMutability": "view",
      "type": "function",
      "constant": true
    }
  ],
  "bytecode": "0x608060405234801561001057600080fd5b506113c5806100206000396000f3fe6080604052600436106100745760003560e01c80639a718e171161004e5780639a718e1714610108578063c16fe90714610133578063d519107e14610174578063e4cc3dd7146101b15761007b565b8063040e55f5146100805780631753c8f3146100ab5780639377d711146100c75761007b565b3661007b57005b600080fd5b34801561008c57600080fd5b506100956101dc565b6040516100a29190611123565b60405180910390f35b6100c560048036038101906100c09190610d3c565b6101e8565b005b3480156100d357600080fd5b506100ee60048036038101906100e99190610d9f565b61046a565b6040516100ff95949392919061102e565b60405180910390f35b34801561011457600080fd5b5061011d6104f0565b60405161012a9190611123565b60405180910390f35b34801561013f57600080fd5b5061015a60048036038101906101559190610d9f565b6104f6565b60405161016b95949392919061102e565b60405180910390f35b34801561018057600080fd5b5061019b60048036038101906101969190610d13565b610691565b6040516101a89190611081565b60405180910390f35b3480156101bd57600080fd5b506101c6610b65565b6040516101d39190611123565b60405180910390f35b60008080549050905090565b6000821161022b576040517f08c379a0000000000000000000000000000000000000000000000000000000008152600401610222906110c3565b60405180910390fd5b6000811015801561023d575060648111155b61027c576040517f08c379a0000000000000000000000000000000000000000000000000000000008152600401610273906110e3565b60405180910390fd5b60006064828461028c91906111f0565b61029691906111bf565b9050600081846102a6919061124a565b905060006159d8826102b891906111f0565b905060006040518060a001604052808973ffffffffffffffffffffffffffffffffffffffff1681526020018873ffffffffffffffffffffffffffffffffffffffff168152602001878152602001848152602001838152509050600081908060018154018082558091505060019003906000526020600020906005020160009091909190915060008201518160000160006101000a81548173ffffffffffffffffffffffffffffffffffffffff021916908373ffffffffffffffffffffffffffffffffffffffff16021790555060208201518160010160006101000a81548173ffffffffffffffffffffffffffffffffffffffff021916908373ffffffffffffffffffffffffffffffffffffffff16021790555060408201518160020155606082015181600301556080820151816004015550508673ffffffffffffffffffffffffffffffffffffffff168873ffffffffffffffffffffffffffffffffffffffff167ffda3a173998751d4dca4d16e10b92a9081d4c3704819b8649ff4a17f9e94ca1b88868660405161044c9392919061113e565b60405180910390a361045f878984610b6c565b505050505050505050565b6000818154811061047a57600080fd5b90600052602060002090600502016000915090508060000160009054906101000a900473ffffffffffffffffffffffffffffffffffffffff16908060010160009054906101000a900473ffffffffffffffffffffffffffffffffffffffff16908060020154908060030154908060040154905085565b6159d881565b600080600080600080805490508610610544576040517f08c379a000000000000000000000000000000000000000000000000000000000815260040161053b906110a3565b60405180910390fd5b600080878154811061057f577f4e487b7100000000000000000000000000000000000000000000000000000000600052603260045260246000fd5b90600052602060002090600502016040518060a00160405290816000820160009054906101000a900473ffffffffffffffffffffffffffffffffffffffff1673ffffffffffffffffffffffffffffffffffffffff1673ffffffffffffffffffffffffffffffffffffffff1681526020016001820160009054906101000a900473ffffffffffffffffffffffffffffffffffffffff1673ffffffffffffffffffffffffffffffffffffffff1673ffffffffffffffffffffffffffffffffffffffff1681526020016002820154815260200160038201548152602001600482015481525050905080600001518160200151826040015183606001518460800151955095509550955095505091939590929450565b60606000805b600080549050811015610806578373ffffffffffffffffffffffffffffffffffffffff16600082815481106106f5577f4e487b7100000000000000000000000000000000000000000000000000000000600052603260045260246000fd5b906000526020600020906005020160000160009054906101000a900473ffffffffffffffffffffffffffffffffffffffff1673ffffffffffffffffffffffffffffffffffffffff1614806107df57508373ffffffffffffffffffffffffffffffffffffffff1660008281548110610795577f4e487b7100000000000000000000000000000000000000000000000000000000600052603260045260246000fd5b906000526020600020906005020160010160009054906101000a900473ffffffffffffffffffffffffffffffffffffffff1673ffffffffffffffffffffffffffffffffffffffff16145b156107f35781806107ef906112ba565b9250505b80806107fe906112ba565b915050610697565b5060008167ffffffffffffffff811115610849577f4e487b7100000000000000000000000000000000000000000000000000000000600052604160045260246000fd5b60405190808252806020026020018201604052801561088257816020015b61086f610c8e565b8152602001906001900390816108675790505b5090506000805b600080549050811015610b59578573ffffffffffffffffffffffffffffffffffffffff16600082815481106108e7577f4e487b7100000000000000000000000000000000000000000000000000000000600052603260045260246000fd5b906000526020600020906005020160000160009054906101000a900473ffffffffffffffffffffffffffffffffffffffff1673ffffffffffffffffffffffffffffffffffffffff1614806109d157508573ffffffffffffffffffffffffffffffffffffffff1660008281548110610987577f4e487b7100000000000000000000000000000000000000000000000000000000600052603260045260246000fd5b906000526020600020906005020160010160009054906101000a900473ffffffffffffffffffffffffffffffffffffffff1673ffffffffffffffffffffffffffffffffffffffff16145b15610b465760008181548110610a10577f4e487b7100000000000000000000000000000000000000000000000000000000600052603260045260246000fd5b90600052602060002090600502016040518060a00160405290816000820160009054906101000a900473ffffffffffffffffffffffffffffffffffffffff1673ffffffffffffffffffffffffffffffffffffffff1673ffffffffffffffffffffffffffffffffffffffff1681526020016001820160009054906101000a900473ffffffffffffffffffffffffffffffffffffffff1673ffffffffffffffffffffffffffffffffffffffff1673ffffffffffffffffffffffffffffffffffffffff1681526020016002820154815260200160038201548152602001600482015481525050838381518110610b2c577f4e487b7100000000000000000000000000000000000000000000000000000000600052603260045260246000fd5b60200260200101819052508180610b42906112ba565b9250505b8080610b51906112ba565b915050610889565b50819350505050919050565b6215e74181565b6000806215e741670de0b6b3a764000084610b8791906111f0565b610b9191906111bf565b905080471015610bd6576040517f08c379a0000000000000000000000000000000000000000000000000000000008152600401610bcd90611103565b60405180910390fd5b8373ffffffffffffffffffffffffffffffffffffffff166108fc829081150290604051600060405180830381858888f19350505050158015610c1c573d6000803e3d6000fd5b508373ffffffffffffffffffffffffffffffffffffffff168573ffffffffffffffffffffffffffffffffffffffff167f10d1a5dc650a65cd6625a330078a13ee62c6ec85b36e94bdf57e4d3188ca673883604051610c7a9190611123565b60405180910390a360019150509392505050565b6040518060a00160405280600073ffffffffffffffffffffffffffffffffffffffff168152602001600073ffffffffffffffffffffffffffffffffffffffff1681526020016000815260200160008152602001600081525090565b600081359050610cf881611361565b92915050565b600081359050610d0d81611378565b92915050565b600060208284031215610d2557600080fd5b6000610d3384828501610ce9565b91505092915050565b60008060008060808587031215610d5257600080fd5b6000610d6087828801610ce9565b9450506020610d7187828801610ce9565b9350506040610d8287828801610cfe565b9250506060610d9387828801610cfe565b91505092959194509250565b600060208284031215610db157600080fd5b6000610dbf84828501610cfe565b91505092915050565b6000610dd48383610fa8565b60a08301905092915050565b610de98161127e565b82525050565b610df88161127e565b82525050565b6000610e0982611185565b610e13818561119d565b9350610e1e83611175565b8060005b83811015610e4f578151610e368882610dc8565b9750610e4183611190565b925050600181019050610e22565b5085935050505092915050565b6000610e69600d836111ae565b91507f496e76616c696420696e646578000000000000000000000000000000000000006000830152602082019050919050565b6000610ea9602a836111ae565b91507f456e657267792067656e657261746564206d757374206265206772656174657260008301527f207468616e207a65726f000000000000000000000000000000000000000000006020830152604082019050919050565b6000610f0f602a836111ae565b91507f4c6f737320636f656666696369656e74206d757374206265206265747765656e60008301527f203020616e6420313030000000000000000000000000000000000000000000006020830152604082019050919050565b6000610f75601d836111ae565b91507f496e73756666696369656e7420636f6e74726163742062616c616e63650000006000830152602082019050919050565b60a082016000820151610fbe6000850182610de0565b506020820151610fd16020850182610de0565b506040820151610fe46040850182611010565b506060820151610ff76060850182611010565b50608082015161100a6080850182611010565b50505050565b611019816112b0565b82525050565b611028816112b0565b82525050565b600060a0820190506110436000830188610def565b6110506020830187610def565b61105d604083018661101f565b61106a606083018561101f565b611077608083018461101f565b9695505050505050565b6000602082019050818103600083015261109b8184610dfe565b905092915050565b600060208201905081810360008301526110bc81610e5c565b9050919050565b600060208201905081810360008301526110dc81610e9c565b9050919050565b600060208201905081810360008301526110fc81610f02565b9050919050565b6000602082019050818103600083015261111c81610f68565b9050919050565b6000602082019050611138600083018461101f565b92915050565b6000606082019050611153600083018661101f565b611160602083018561101f565b61116d604083018461101f565b949350505050565b6000819050602082019050919050565b600081519050919050565b6000602082019050919050565b600082825260208201905092915050565b600082825260208201905092915050565b60006111ca826112b0565b91506111d5836112b0565b9250826111e5576111e4611332565b5b828204905092915050565b60006111fb826112b0565b9150611206836112b0565b9250817fffffffffffffffffffffffffffffffffffffffffffffffffffffffffffffffff048311821515161561123f5761123e611303565b5b828202905092915050565b6000611255826112b0565b9150611260836112b0565b92508282101561127357611272611303565b5b828203905092915050565b600061128982611290565b9050919050565b600073ffffffffffffffffffffffffffffffffffffffff82169050919050565b6000819050919050565b60006112c5826112b0565b91507fffffffffffffffffffffffffffffffffffffffffffffffffffffffffffffffff8214156112f8576112f7611303565b5b600182019050919050565b7f4e487b7100000000000000000000000000000000000000000000000000000000600052601160045260246000fd5b7f4e487b7100000000000000000000000000000000000000000000000000000000600052601260045260246000fd5b61136a8161127e565b811461137557600080fd5b50565b611381816112b0565b811461138c57600080fd5b5056fea2646970667358221220007e8b1ba8417a513ac7f24d733d925b451aae0f2ca7182275072bdb1c8f605264736f6c63430008000033",
  "immutableReferences": {},
  "source": "// SPDX-License-Identifier: MIT\npragma solidity ^0.8.0;\n\ncontract EnergyTransfer {\n    uint256 public constant PRICE_PER_MWH = 23000; //    , .. 10  = 0.10 \n    uint256 public constant ETHER_PRICE_IN_TENGE = 1435457; //    \n\n    struct Transfer {\n        address generator;\n        address consumer;\n        uint256 energyGenerated; //  \n        uint256 energyReceived; //  \n        uint256 cost; //  \n    }\n\n    Transfer[] public transfers;\n\n    event TransferLogged(\n        address indexed generator,\n        address indexed consumer,\n        uint256 energyGenerated,\n        uint256 energyReceived,\n        uint256 cost\n    );\n\n    event EtherSent(\n        address indexed from,\n        address indexed to,\n        uint256 value\n    );\n\n    function logEnergyTransfer(\n        address _generator,\n        address _consumer,\n        uint256 _energyGenerated,\n        uint256 _lossCoefficient\n    ) public payable {\n        require(_energyGenerated > 0, \"Energy generated must be greater than zero\");\n        require(_lossCoefficient >= 0 && _lossCoefficient <= 100, \"Loss coefficient must be between 0 and 100\");\n\n        uint256 energyLoss = (_energyGenerated * _lossCoefficient) / 100;\n        uint256 energyReceived = _energyGenerated - energyLoss;\n        uint256 cost = (energyReceived * PRICE_PER_MWH);\n\n        Transfer memory newTransfer = Transfer({\n            generator: _generator,\n            consumer: _consumer,\n            energyGenerated: _energyGenerated,\n            energyReceived: energyReceived,\n            cost: cost\n        });\n\n        transfers.push(newTransfer);\n\n        emit TransferLogged(_generator, _consumer, _energyGenerated, energyReceived, cost);\n\n        sendEther(_consumer, _generator, cost);\n    }\n\n    function getTransferCount() public view returns (uint256) {\n        return transfers.length;\n    }\n\n    function getTransfer(uint256 _index) public view returns (\n        address generator,\n        address consumer,\n        uint256 energyGenerated,\n        uint256 energyReceived,\n        uint256 cost\n    ) {\n        require(_index < transfers.length, \"Invalid index\");\n        Transfer memory transfer = transfers[_index];\n        return (\n            transfer.generator,\n            transfer.consumer,\n            transfer.energyGenerated,\n            transfer.energyReceived,\n            transfer.cost\n        );\n    }\n\n    function getTransfersByAddress(address _address) public view returns (Transfer[] memory) {\n        uint256 count = 0;\n        for (uint256 i = 0; i < transfers.length; i++) {\n            if (transfers[i].generator == _address || transfers[i].consumer == _address) {\n                count++;\n            }\n        }\n\n        Transfer[] memory result = new Transfer[](count);\n        uint256 j = 0;\n        for (uint256 i = 0; i < transfers.length; i++) {\n            if (transfers[i].generator == _address || transfers[i].consumer == _address) {\n                result[j] = transfers[i];\n                j++;\n            }\n        }\n\n        return result;\n    }\n\n    function sendEther(address _from, address _to, uint256 totalEnergyCost) internal returns (bool success) {\n        uint256 costInEther = (totalEnergyCost * 1 ether) / ETHER_PRICE_IN_TENGE;\n        require(address(this).balance >= costInEther, \"Insufficient contract balance\");\n\n        payable(_to).transfer(costInEther);\n\n        emit EtherSent(_from, _to, costInEther);\n        return true;\n    }\n\n    receive() external payable {}\n}\n",
  "sourcePath": "/Users/abdisadykov/WebstormProjects/generatorFreelance/contracts/EnergyTransfer.sol",
  "compiler": {
    "name": "solc",
    "version": "0.8.0+commit.c7dfd78e.Emscripten.clang"
  },
  "schemaVersion": "3.4.16",
  "updatedAt": "2024-07-08T08:25:50.257Z",
  "networkType": "ethereum",
  "devdoc": {
    "kind": "dev",
    "methods": {},
    "version": 1
  },
  "userdoc": {
    "kind": "user",
    "methods": {},
    "version": 1
  }
}