{
  "contractName": "EnergyTransfer",
  "abi": [
    {
      "anonymous": false,
      "inputs": [
        {
          "indexed": true,
          "internalType": "address",
          "name": "from",
          "type": "address"
        },
        {
          "indexed": true,
          "internalType": "address",
          "name": "to",
          "type": "address"
        },
        {
          "indexed": false,
          "internalType": "uint256",
          "name": "value",
          "type": "uint256"
        }
      ],
      "name": "EtherSent",
      "type": "event"
    },
    {
      "anonymous": false,
      "inputs": [
        {
          "indexed": true,
          "internalType": "address",
          "name": "generator",
          "type": "address"
        },
        {
          "indexed": true,
          "internalType": "address",
          "name": "consumer",
          "type": "address"
        },
        {
          "indexed": false,
          "internalType": "uint256",
          "name": "energyGenerated",
          "type": "uint256"
        },
        {
          "indexed": false,
          "internalType": "uint256",
          "name": "energyReceived",
          "type": "uint256"
        },
        {
          "indexed": false,
          "internalType": "uint256",
          "name": "cost",
          "type": "uint256"
        }
      ],
      "name": "TransferLogged",
      "type": "event"
    },
    {
      "inputs": [
        {
          "internalType": "uint256",
          "name": "",
          "type": "uint256"
        }
      ],
      "name": "transfers",
      "outputs": [
        {
          "internalType": "address",
          "name": "generator",
          "type": "address"
        },
        {
          "internalType": "address",
          "name": "consumer",
          "type": "address"
        },
        {
          "internalType": "uint256",
          "name": "energyGenerated",
          "type": "uint256"
        },
        {
          "internalType": "uint256",
          "name": "energyReceived",
          "type": "uint256"
        },
        {
          "internalType": "uint256",
          "name": "cost",
          "type": "uint256"
        }
      ],
      "stateMutability": "view",
      "type": "function",
      "constant": true
    },
    {
      "stateMutability": "payable",
      "type": "receive",
      "payable": true
    },
    {
      "inputs": [
        {
          "internalType": "address",
          "name": "_generator",
          "type": "address"
        },
        {
          "internalType": "address",
          "name": "_consumer",
          "type": "address"
        },
        {
          "internalType": "uint256",
          "name": "_energyGenerated",
          "type": "uint256"
        },
        {
          "internalType": "uint256",
          "name": "_lossCoefficient",
          "type": "uint256"
        },
        {
          "internalType": "uint256",
          "name": "_costInEther",
          "type": "uint256"
        },
        {
          "internalType": "uint256",
          "name": "_pricePerMwh",
          "type": "uint256"
        }
      ],
      "name": "logEnergyTransfer",
      "outputs": [],
      "stateMutability": "payable",
      "type": "function",
      "payable": true
    },
    {
      "inputs": [],
      "name": "getTransferCount",
      "outputs": [
        {
          "internalType": "uint256",
          "name": "",
          "type": "uint256"
        }
      ],
      "stateMutability": "view",
      "type": "function",
      "constant": true
    },
    {
      "inputs": [
        {
          "internalType": "uint256",
          "name": "_index",
          "type": "uint256"
        }
      ],
      "name": "getTransfer",
      "outputs": [
        {
          "internalType": "address",
          "name": "generator",
          "type": "address"
        },
        {
          "internalType": "address",
          "name": "consumer",
          "type": "address"
        },
        {
          "internalType": "uint256",
          "name": "energyGenerated",
          "type": "uint256"
        },
        {
          "internalType": "uint256",
          "name": "energyReceived",
          "type": "uint256"
        },
        {
          "internalType": "uint256",
          "name": "cost",
          "type": "uint256"
        }
      ],
      "stateMutability": "view",
      "type": "function",
      "constant": true
    },
    {
      "inputs": [
        {
          "internalType": "address",
          "name": "_address",
          "type": "address"
        }
      ],
      "name": "getTransfersByAddress",
      "outputs": [
        {
          "components": [
            {
              "internalType": "address",
              "name": "generator",
              "type": "address"
            },
            {
              "internalType": "address",
              "name": "consumer",
              "type": "address"
            },
            {
              "internalType": "uint256",
              "name": "energyGenerated",
              "type": "uint256"
            },
            {
              "internalType": "uint256",
              "name": "energyReceived",
              "type": "uint256"
            },
            {
              "internalType": "uint256",
              "name": "cost",
              "type": "uint256"
            }
          ],
          "internalType": "struct EnergyTransfer.Transfer[]",
          "name": "",
          "type": "tuple[]"
        }
      ],
      "stateMutability": "view",
      "type": "function",
      "constant": true
    }
  ],
  "bytecode": "0x608060405234801561001057600080fd5b506113d4806100206000396000f3fe60806040526004361061004e5760003560e01c8063040e55f51461005a57806318162741146100855780639377d711146100a1578063c16fe907146100e2578063d519107e1461012357610055565b3661005557005b600080fd5b34801561006657600080fd5b5061006f610160565b60405161007c9190611132565b60405180910390f35b61009f600480360381019061009a9190610cc5565b61016c565b005b3480156100ad57600080fd5b506100c860048036038101906100c39190610d4e565b610426565b6040516100d995949392919061101d565b60405180910390f35b3480156100ee57600080fd5b5061010960048036038101906101049190610d4e565b6104ac565b60405161011a95949392919061101d565b60405180910390f35b34801561012f57600080fd5b5061014a60048036038101906101459190610c9c565b610647565b6040516101579190611070565b60405180910390f35b60008080549050905090565b600084116101af576040517f08c379a00000000000000000000000000000000000000000000000000000000081526004016101a6906110d2565b60405180910390fd5b600083101580156101c1575060648311155b610200576040517f08c379a00000000000000000000000000000000000000000000000000000000081526004016101f7906110f2565b60405180910390fd5b600060648461020f91906111ce565b90506000818661021f9190611259565b90506000838261022f91906111ff565b905084341015610274576040517f08c379a000000000000000000000000000000000000000000000000000000000815260040161026b906110b2565b60405180910390fd5b60006040518060a001604052808b73ffffffffffffffffffffffffffffffffffffffff1681526020018a73ffffffffffffffffffffffffffffffffffffffff168152602001898152602001848152602001838152509050600081908060018154018082558091505060019003906000526020600020906005020160009091909190915060008201518160000160006101000a81548173ffffffffffffffffffffffffffffffffffffffff021916908373ffffffffffffffffffffffffffffffffffffffff16021790555060208201518160010160006101000a81548173ffffffffffffffffffffffffffffffffffffffff021916908373ffffffffffffffffffffffffffffffffffffffff16021790555060408201518160020155606082015181600301556080820151816004015550508873ffffffffffffffffffffffffffffffffffffffff168a73ffffffffffffffffffffffffffffffffffffffff167ffda3a173998751d4dca4d16e10b92a9081d4c3704819b8649ff4a17f9e94ca1b8a86866040516104069392919061114d565b60405180910390a3610419898b88610b1b565b5050505050505050505050565b6000818154811061043657600080fd5b90600052602060002090600502016000915090508060000160009054906101000a900473ffffffffffffffffffffffffffffffffffffffff16908060010160009054906101000a900473ffffffffffffffffffffffffffffffffffffffff16908060020154908060030154908060040154905085565b6000806000806000808054905086106104fa576040517f08c379a00000000000000000000000000000000000000000000000000000000081526004016104f190611092565b60405180910390fd5b6000808781548110610535577f4e487b7100000000000000000000000000000000000000000000000000000000600052603260045260246000fd5b90600052602060002090600502016040518060a00160405290816000820160009054906101000a900473ffffffffffffffffffffffffffffffffffffffff1673ffffffffffffffffffffffffffffffffffffffff1673ffffffffffffffffffffffffffffffffffffffff1681526020016001820160009054906101000a900473ffffffffffffffffffffffffffffffffffffffff1673ffffffffffffffffffffffffffffffffffffffff1673ffffffffffffffffffffffffffffffffffffffff1681526020016002820154815260200160038201548152602001600482015481525050905080600001518160200151826040015183606001518460800151955095509550955095505091939590929450565b60606000805b6000805490508110156107bc578373ffffffffffffffffffffffffffffffffffffffff16600082815481106106ab577f4e487b7100000000000000000000000000000000000000000000000000000000600052603260045260246000fd5b906000526020600020906005020160000160009054906101000a900473ffffffffffffffffffffffffffffffffffffffff1673ffffffffffffffffffffffffffffffffffffffff16148061079557508373ffffffffffffffffffffffffffffffffffffffff166000828154811061074b577f4e487b7100000000000000000000000000000000000000000000000000000000600052603260045260246000fd5b906000526020600020906005020160010160009054906101000a900473ffffffffffffffffffffffffffffffffffffffff1673ffffffffffffffffffffffffffffffffffffffff16145b156107a95781806107a5906112c9565b9250505b80806107b4906112c9565b91505061064d565b5060008167ffffffffffffffff8111156107ff577f4e487b7100000000000000000000000000000000000000000000000000000000600052604160045260246000fd5b60405190808252806020026020018201604052801561083857816020015b610825610c17565b81526020019060019003908161081d5790505b5090506000805b600080549050811015610b0f578573ffffffffffffffffffffffffffffffffffffffff166000828154811061089d577f4e487b7100000000000000000000000000000000000000000000000000000000600052603260045260246000fd5b906000526020600020906005020160000160009054906101000a900473ffffffffffffffffffffffffffffffffffffffff1673ffffffffffffffffffffffffffffffffffffffff16148061098757508573ffffffffffffffffffffffffffffffffffffffff166000828154811061093d577f4e487b7100000000000000000000000000000000000000000000000000000000600052603260045260246000fd5b906000526020600020906005020160010160009054906101000a900473ffffffffffffffffffffffffffffffffffffffff1673ffffffffffffffffffffffffffffffffffffffff16145b15610afc57600081815481106109c6577f4e487b7100000000000000000000000000000000000000000000000000000000600052603260045260246000fd5b90600052602060002090600502016040518060a00160405290816000820160009054906101000a900473ffffffffffffffffffffffffffffffffffffffff1673ffffffffffffffffffffffffffffffffffffffff1673ffffffffffffffffffffffffffffffffffffffff1681526020016001820160009054906101000a900473ffffffffffffffffffffffffffffffffffffffff1673ffffffffffffffffffffffffffffffffffffffff1673ffffffffffffffffffffffffffffffffffffffff1681526020016002820154815260200160038201548152602001600482015481525050838381518110610ae2577f4e487b7100000000000000000000000000000000000000000000000000000000600052603260045260246000fd5b60200260200101819052508180610af8906112c9565b9250505b8080610b07906112c9565b91505061083f565b50819350505050919050565b600081471015610b60576040517f08c379a0000000000000000000000000000000000000000000000000000000008152600401610b5790611112565b60405180910390fd5b8273ffffffffffffffffffffffffffffffffffffffff166108fc839081150290604051600060405180830381858888f19350505050158015610ba6573d6000803e3d6000fd5b508273ffffffffffffffffffffffffffffffffffffffff168473ffffffffffffffffffffffffffffffffffffffff167f10d1a5dc650a65cd6625a330078a13ee62c6ec85b36e94bdf57e4d3188ca673884604051610c049190611132565b60405180910390a3600190509392505050565b6040518060a00160405280600073ffffffffffffffffffffffffffffffffffffffff168152602001600073ffffffffffffffffffffffffffffffffffffffff1681526020016000815260200160008152602001600081525090565b600081359050610c8181611370565b92915050565b600081359050610c9681611387565b92915050565b600060208284031215610cae57600080fd5b6000610cbc84828501610c72565b91505092915050565b60008060008060008060c08789031215610cde57600080fd5b6000610cec89828a01610c72565b9650506020610cfd89828a01610c72565b9550506040610d0e89828a01610c87565b9450506060610d1f89828a01610c87565b9350506080610d3089828a01610c87565b92505060a0610d4189828a01610c87565b9150509295509295509295565b600060208284031215610d6057600080fd5b6000610d6e84828501610c87565b91505092915050565b6000610d838383610f97565b60a08301905092915050565b610d988161128d565b82525050565b610da78161128d565b82525050565b6000610db882611194565b610dc281856111ac565b9350610dcd83611184565b8060005b83811015610dfe578151610de58882610d77565b9750610df08361119f565b925050600181019050610dd1565b5085935050505092915050565b6000610e18600d836111bd565b91507f496e76616c696420696e646578000000000000000000000000000000000000006000830152602082019050919050565b6000610e586017836111bd565b91507f496e73756666696369656e742045746865722073656e740000000000000000006000830152602082019050919050565b6000610e98602a836111bd565b91507f456e657267792067656e657261746564206d757374206265206772656174657260008301527f207468616e207a65726f000000000000000000000000000000000000000000006020830152604082019050919050565b6000610efe602a836111bd565b91507f4c6f737320636f656666696369656e74206d757374206265206265747765656e60008301527f203020616e6420313030000000000000000000000000000000000000000000006020830152604082019050919050565b6000610f64601d836111bd565b91507f496e73756666696369656e7420636f6e74726163742062616c616e63650000006000830152602082019050919050565b60a082016000820151610fad6000850182610d8f565b506020820151610fc06020850182610d8f565b506040820151610fd36040850182610fff565b506060820151610fe66060850182610fff565b506080820151610ff96080850182610fff565b50505050565b611008816112bf565b82525050565b611017816112bf565b82525050565b600060a0820190506110326000830188610d9e565b61103f6020830187610d9e565b61104c604083018661100e565b611059606083018561100e565b611066608083018461100e565b9695505050505050565b6000602082019050818103600083015261108a8184610dad565b905092915050565b600060208201905081810360008301526110ab81610e0b565b9050919050565b600060208201905081810360008301526110cb81610e4b565b9050919050565b600060208201905081810360008301526110eb81610e8b565b9050919050565b6000602082019050818103600083015261110b81610ef1565b9050919050565b6000602082019050818103600083015261112b81610f57565b9050919050565b6000602082019050611147600083018461100e565b92915050565b6000606082019050611162600083018661100e565b61116f602083018561100e565b61117c604083018461100e565b949350505050565b6000819050602082019050919050565b600081519050919050565b6000602082019050919050565b600082825260208201905092915050565b600082825260208201905092915050565b60006111d9826112bf565b91506111e4836112bf565b9250826111f4576111f3611341565b5b828204905092915050565b600061120a826112bf565b9150611215836112bf565b9250817fffffffffffffffffffffffffffffffffffffffffffffffffffffffffffffffff048311821515161561124e5761124d611312565b5b828202905092915050565b6000611264826112bf565b915061126f836112bf565b92508282101561128257611281611312565b5b828203905092915050565b60006112988261129f565b9050919050565b600073ffffffffffffffffffffffffffffffffffffffff82169050919050565b6000819050919050565b60006112d4826112bf565b91507fffffffffffffffffffffffffffffffffffffffffffffffffffffffffffffffff82141561130757611306611312565b5b600182019050919050565b7f4e487b7100000000000000000000000000000000000000000000000000000000600052601160045260246000fd5b7f4e487b7100000000000000000000000000000000000000000000000000000000600052601260045260246000fd5b6113798161128d565b811461138457600080fd5b50565b611390816112bf565b811461139b57600080fd5b5056fea26469706673582212208b65903b1f51a339be5f96eeb8b490674792462634f492f30ea7205c6fb4a45d64736f6c63430008000033",
  "immutableReferences": {},
  "source": "// SPDX-License-Identifier: MIT\npragma solidity ^0.8.0;\n\ncontract EnergyTransfer {\n\n    struct Transfer {\n        address generator;\n        address consumer;\n        uint256 energyGenerated; //  \n        uint256 energyReceived; //  \n        uint256 cost; //  \n    }\n\n    Transfer[] public transfers;\n\n    event TransferLogged(\n        address indexed generator,\n        address indexed consumer,\n        uint256 energyGenerated,\n        uint256 energyReceived,\n        uint256 cost\n    );\n\n    event EtherSent(\n        address indexed from,\n        address indexed to,\n        uint256 value\n    );\n\n    function logEnergyTransfer(\n        address _generator,\n        address _consumer,\n        uint256 _energyGenerated,\n        uint256 _lossCoefficient,\n        uint256 _costInEther,\n        uint256 _pricePerMwh\n    ) public payable {\n        require(_energyGenerated > 0, \"Energy generated must be greater than zero\");\n        require(_lossCoefficient >= 0 && _lossCoefficient <= 100, \"Loss coefficient must be between 0 and 100\");\n\n        uint256 energyLoss = (_lossCoefficient) / 100;\n        uint256 energyReceived = _energyGenerated - energyLoss;\n        uint256 cost = (energyReceived * _pricePerMwh);\n\n        require(msg.value >= _costInEther, \"Insufficient Ether sent\");\n\n        Transfer memory newTransfer = Transfer({\n            generator: _generator,\n            consumer: _consumer,\n            energyGenerated: _energyGenerated,\n            energyReceived: energyReceived,\n            cost: cost\n        });\n\n        transfers.push(newTransfer);\n\n        emit TransferLogged(_generator, _consumer, _energyGenerated, energyReceived, cost);\n\n        sendEther(_consumer, _generator, _costInEther);\n    }\n\n    function getTransferCount() public view returns (uint256) {\n        return transfers.length;\n    }\n\n    function getTransfer(uint256 _index) public view returns (\n        address generator,\n        address consumer,\n        uint256 energyGenerated,\n        uint256 energyReceived,\n        uint256 cost\n    ) {\n        require(_index < transfers.length, \"Invalid index\");\n        Transfer memory transfer = transfers[_index];\n        return (\n            transfer.generator,\n            transfer.consumer,\n            transfer.energyGenerated,\n            transfer.energyReceived,\n            transfer.cost\n        );\n    }\n\n    function getTransfersByAddress(address _address) public view returns (Transfer[] memory) {\n        uint256 count = 0;\n        for (uint256 i = 0; i < transfers.length; i++) {\n            if (transfers[i].generator == _address || transfers[i].consumer == _address) {\n                count++;\n            }\n        }\n\n        Transfer[] memory result = new Transfer[](count);\n        uint256 j = 0;\n        for (uint256 i = 0; i < transfers.length; i++) {\n            if (transfers[i].generator == _address || transfers[i].consumer == _address) {\n                result[j] = transfers[i];\n                j++;\n            }\n        }\n\n        return result;\n    }\n\n    function sendEther(address _consumer, address _generator, uint256 costInEther) internal returns (bool success) {\n        require(address(this).balance >= costInEther, \"Insufficient contract balance\");\n\n        payable(_generator).transfer(costInEther);\n\n        emit EtherSent(_consumer, _generator, costInEther);\n        return true;\n    }\n\n    receive() external payable {}\n}\n",
  "sourcePath": "/Users/abdisadykov/WebstormProjects/generatorFreelance/contracts/EnergyTransfer.sol",
  "compiler": {
    "name": "solc",
    "version": "0.8.0+commit.c7dfd78e.Emscripten.clang"
  },
  "schemaVersion": "3.4.16",
  "updatedAt": "2024-07-14T08:37:28.330Z",
  "networkType": "ethereum",
  "devdoc": {
    "kind": "dev",
    "methods": {},
    "version": 1
  },
  "userdoc": {
    "kind": "user",
    "methods": {},
    "version": 1
  }
}