{
  "contractName": "EnergyTransfer",
  "abi": [
    {
      "anonymous": false,
      "inputs": [
        {
          "indexed": true,
          "internalType": "address",
          "name": "from",
          "type": "address"
        },
        {
          "indexed": true,
          "internalType": "address",
          "name": "to",
          "type": "address"
        },
        {
          "indexed": false,
          "internalType": "uint256",
          "name": "value",
          "type": "uint256"
        }
      ],
      "name": "EtherTransferred",
      "type": "event"
    },
    {
      "anonymous": false,
      "inputs": [
        {
          "indexed": true,
          "internalType": "address",
          "name": "generator",
          "type": "address"
        },
        {
          "indexed": true,
          "internalType": "address",
          "name": "consumer",
          "type": "address"
        },
        {
          "indexed": false,
          "internalType": "uint256",
          "name": "energyGenerated",
          "type": "uint256"
        },
        {
          "indexed": false,
          "internalType": "uint256",
          "name": "energyReceived",
          "type": "uint256"
        },
        {
          "indexed": false,
          "internalType": "uint256",
          "name": "cost",
          "type": "uint256"
        }
      ],
      "name": "TransferLogged",
      "type": "event"
    },
    {
      "inputs": [],
      "name": "PRICE_PER_MWH",
      "outputs": [
        {
          "internalType": "uint256",
          "name": "",
          "type": "uint256"
        }
      ],
      "stateMutability": "view",
      "type": "function"
    },
    {
      "inputs": [
        {
          "internalType": "address",
          "name": "",
          "type": "address"
        }
      ],
      "name": "balanceOf",
      "outputs": [
        {
          "internalType": "uint256",
          "name": "",
          "type": "uint256"
        }
      ],
      "stateMutability": "view",
      "type": "function"
    },
    {
      "inputs": [
        {
          "internalType": "uint256",
          "name": "",
          "type": "uint256"
        }
      ],
      "name": "transfers",
      "outputs": [
        {
          "internalType": "address",
          "name": "generator",
          "type": "address"
        },
        {
          "internalType": "address",
          "name": "consumer",
          "type": "address"
        },
        {
          "internalType": "uint256",
          "name": "energyGenerated",
          "type": "uint256"
        },
        {
          "internalType": "uint256",
          "name": "energyReceived",
          "type": "uint256"
        },
        {
          "internalType": "uint256",
          "name": "cost",
          "type": "uint256"
        }
      ],
      "stateMutability": "view",
      "type": "function"
    },
    {
      "inputs": [
        {
          "internalType": "address",
          "name": "_generator",
          "type": "address"
        },
        {
          "internalType": "address",
          "name": "_consumer",
          "type": "address"
        },
        {
          "internalType": "uint256",
          "name": "_energyGenerated",
          "type": "uint256"
        },
        {
          "internalType": "uint256",
          "name": "_lossCoefficient",
          "type": "uint256"
        }
      ],
      "name": "logEnergyTransfer",
      "outputs": [],
      "stateMutability": "payable",
      "type": "function"
    },
    {
      "inputs": [],
      "name": "getTransferCount",
      "outputs": [
        {
          "internalType": "uint256",
          "name": "",
          "type": "uint256"
        }
      ],
      "stateMutability": "view",
      "type": "function"
    },
    {
      "inputs": [
        {
          "internalType": "uint256",
          "name": "_index",
          "type": "uint256"
        }
      ],
      "name": "getTransfer",
      "outputs": [
        {
          "internalType": "address",
          "name": "generator",
          "type": "address"
        },
        {
          "internalType": "address",
          "name": "consumer",
          "type": "address"
        },
        {
          "internalType": "uint256",
          "name": "energyGenerated",
          "type": "uint256"
        },
        {
          "internalType": "uint256",
          "name": "energyReceived",
          "type": "uint256"
        },
        {
          "internalType": "uint256",
          "name": "cost",
          "type": "uint256"
        }
      ],
      "stateMutability": "view",
      "type": "function"
    },
    {
      "inputs": [
        {
          "internalType": "address",
          "name": "_address",
          "type": "address"
        }
      ],
      "name": "getTransfersByAddress",
      "outputs": [
        {
          "components": [
            {
              "internalType": "address",
              "name": "generator",
              "type": "address"
            },
            {
              "internalType": "address",
              "name": "consumer",
              "type": "address"
            },
            {
              "internalType": "uint256",
              "name": "energyGenerated",
              "type": "uint256"
            },
            {
              "internalType": "uint256",
              "name": "energyReceived",
              "type": "uint256"
            },
            {
              "internalType": "uint256",
              "name": "cost",
              "type": "uint256"
            }
          ],
          "internalType": "struct EnergyTransfer.Transfer[]",
          "name": "",
          "type": "tuple[]"
        }
      ],
      "stateMutability": "view",
      "type": "function"
    },
    {
      "inputs": [],
      "name": "getEtherPrice",
      "outputs": [
        {
          "internalType": "uint256",
          "name": "",
          "type": "uint256"
        }
      ],
      "stateMutability": "pure",
      "type": "function"
    }
  ],
  "bytecode": "0x608060405234801561001057600080fd5b506114c1806100206000396000f3fe60806040526004361061007b5760003560e01c80639a718e171161004e5780639a718e1714610145578063c16fe90714610170578063ca7c4dba146101b1578063d519107e146101dc5761007b565b8063040e55f5146100805780631753c8f3146100ab57806370a08231146100c75780639377d71114610104575b600080fd5b34801561008c57600080fd5b50610095610219565b6040516100a2919061121f565b60405180910390f35b6100c560048036038101906100c09190610dd8565b610225565b005b3480156100d357600080fd5b506100ee60048036038101906100e99190610daf565b610519565b6040516100fb919061121f565b60405180910390f35b34801561011057600080fd5b5061012b60048036038101906101269190610e3b565b610531565b60405161013c95949392919061110a565b60405180910390f35b34801561015157600080fd5b5061015a6105b7565b604051610167919061121f565b60405180910390f35b34801561017c57600080fd5b5061019760048036038101906101929190610e3b565b6105bd565b6040516101a895949392919061110a565b60405180910390f35b3480156101bd57600080fd5b506101c6610758565b6040516101d3919061121f565b60405180910390f35b3480156101e857600080fd5b5061020360048036038101906101fe9190610daf565b610763565b604051610210919061115d565b60405180910390f35b60008080549050905090565b60008211610268576040517f08c379a000000000000000000000000000000000000000000000000000000000815260040161025f906111bf565b60405180910390fd5b6000811015801561027a575060648111155b6102b9576040517f08c379a00000000000000000000000000000000000000000000000000000000081526004016102b0906111df565b60405180910390fd5b6000606482846102c991906112ec565b6102d391906112bb565b9050600081846102e39190611346565b905060006159d8826102f591906112ec565b90506000610301610758565b9050600081670de0b6b3a76400008461031a91906112ec565b61032491906112bb565b905080341015610369576040517f08c379a00000000000000000000000000000000000000000000000000000000081526004016103609061119f565b60405180910390fd5b60006040518060a001604052808b73ffffffffffffffffffffffffffffffffffffffff1681526020018a73ffffffffffffffffffffffffffffffffffffffff168152602001898152602001868152602001858152509050600081908060018154018082558091505060019003906000526020600020906005020160009091909190915060008201518160000160006101000a81548173ffffffffffffffffffffffffffffffffffffffff021916908373ffffffffffffffffffffffffffffffffffffffff16021790555060208201518160010160006101000a81548173ffffffffffffffffffffffffffffffffffffffff021916908373ffffffffffffffffffffffffffffffffffffffff16021790555060408201518160020155606082015181600301556080820151816004015550506104a48a83610c37565b8873ffffffffffffffffffffffffffffffffffffffff168a73ffffffffffffffffffffffffffffffffffffffff167ffda3a173998751d4dca4d16e10b92a9081d4c3704819b8649ff4a17f9e94ca1b8a88886040516105059392919061123a565b60405180910390a350505050505050505050565b60016020528060005260406000206000915090505481565b6000818154811061054157600080fd5b90600052602060002090600502016000915090508060000160009054906101000a900473ffffffffffffffffffffffffffffffffffffffff16908060010160009054906101000a900473ffffffffffffffffffffffffffffffffffffffff16908060020154908060030154908060040154905085565b6159d881565b60008060008060008080549050861061060b576040517f08c379a00000000000000000000000000000000000000000000000000000000081526004016106029061117f565b60405180910390fd5b6000808781548110610646577f4e487b7100000000000000000000000000000000000000000000000000000000600052603260045260246000fd5b90600052602060002090600502016040518060a00160405290816000820160009054906101000a900473ffffffffffffffffffffffffffffffffffffffff1673ffffffffffffffffffffffffffffffffffffffff1673ffffffffffffffffffffffffffffffffffffffff1681526020016001820160009054906101000a900473ffffffffffffffffffffffffffffffffffffffff1673ffffffffffffffffffffffffffffffffffffffff1673ffffffffffffffffffffffffffffffffffffffff1681526020016002820154815260200160038201548152602001600482015481525050905080600001518160200151826040015183606001518460800151955095509550955095505091939590929450565b60006215e741905090565b60606000805b6000805490508110156108d8578373ffffffffffffffffffffffffffffffffffffffff16600082815481106107c7577f4e487b7100000000000000000000000000000000000000000000000000000000600052603260045260246000fd5b906000526020600020906005020160000160009054906101000a900473ffffffffffffffffffffffffffffffffffffffff1673ffffffffffffffffffffffffffffffffffffffff1614806108b157508373ffffffffffffffffffffffffffffffffffffffff1660008281548110610867577f4e487b7100000000000000000000000000000000000000000000000000000000600052603260045260246000fd5b906000526020600020906005020160010160009054906101000a900473ffffffffffffffffffffffffffffffffffffffff1673ffffffffffffffffffffffffffffffffffffffff16145b156108c55781806108c1906113b6565b9250505b80806108d0906113b6565b915050610769565b5060008167ffffffffffffffff81111561091b577f4e487b7100000000000000000000000000000000000000000000000000000000600052604160045260246000fd5b60405190808252806020026020018201604052801561095457816020015b610941610d2a565b8152602001906001900390816109395790505b5090506000805b600080549050811015610c2b578573ffffffffffffffffffffffffffffffffffffffff16600082815481106109b9577f4e487b7100000000000000000000000000000000000000000000000000000000600052603260045260246000fd5b906000526020600020906005020160000160009054906101000a900473ffffffffffffffffffffffffffffffffffffffff1673ffffffffffffffffffffffffffffffffffffffff161480610aa357508573ffffffffffffffffffffffffffffffffffffffff1660008281548110610a59577f4e487b7100000000000000000000000000000000000000000000000000000000600052603260045260246000fd5b906000526020600020906005020160010160009054906101000a900473ffffffffffffffffffffffffffffffffffffffff1673ffffffffffffffffffffffffffffffffffffffff16145b15610c185760008181548110610ae2577f4e487b7100000000000000000000000000000000000000000000000000000000600052603260045260246000fd5b90600052602060002090600502016040518060a00160405290816000820160009054906101000a900473ffffffffffffffffffffffffffffffffffffffff1673ffffffffffffffffffffffffffffffffffffffff1673ffffffffffffffffffffffffffffffffffffffff1681526020016001820160009054906101000a900473ffffffffffffffffffffffffffffffffffffffff1673ffffffffffffffffffffffffffffffffffffffff1673ffffffffffffffffffffffffffffffffffffffff1681526020016002820154815260200160038201548152602001600482015481525050838381518110610bfe577f4e487b7100000000000000000000000000000000000000000000000000000000600052603260045260246000fd5b60200260200101819052508180610c14906113b6565b9250505b8080610c23906113b6565b91505061095b565b50819350505050919050565b80471015610c7a576040517f08c379a0000000000000000000000000000000000000000000000000000000008152600401610c71906111ff565b60405180910390fd5b8173ffffffffffffffffffffffffffffffffffffffff166108fc829081150290604051600060405180830381858888f19350505050158015610cc0573d6000803e3d6000fd5b508173ffffffffffffffffffffffffffffffffffffffff163373ffffffffffffffffffffffffffffffffffffffff167fe542f7eace00597675a71f483aa6d1634c3833c9e7afd7d0089b291f5e04fdb683604051610d1e919061121f565b60405180910390a35050565b6040518060a00160405280600073ffffffffffffffffffffffffffffffffffffffff168152602001600073ffffffffffffffffffffffffffffffffffffffff1681526020016000815260200160008152602001600081525090565b600081359050610d948161145d565b92915050565b600081359050610da981611474565b92915050565b600060208284031215610dc157600080fd5b6000610dcf84828501610d85565b91505092915050565b60008060008060808587031215610dee57600080fd5b6000610dfc87828801610d85565b9450506020610e0d87828801610d85565b9350506040610e1e87828801610d9a565b9250506060610e2f87828801610d9a565b91505092959194509250565b600060208284031215610e4d57600080fd5b6000610e5b84828501610d9a565b91505092915050565b6000610e708383611084565b60a08301905092915050565b610e858161137a565b82525050565b610e948161137a565b82525050565b6000610ea582611281565b610eaf8185611299565b9350610eba83611271565b8060005b83811015610eeb578151610ed28882610e64565b9750610edd8361128c565b925050600181019050610ebe565b5085935050505092915050565b6000610f05600d836112aa565b91507f496e76616c696420696e646578000000000000000000000000000000000000006000830152602082019050919050565b6000610f456017836112aa565b91507f496e73756666696369656e742045746865722073656e740000000000000000006000830152602082019050919050565b6000610f85602a836112aa565b91507f456e657267792067656e657261746564206d757374206265206772656174657260008301527f207468616e207a65726f000000000000000000000000000000000000000000006020830152604082019050919050565b6000610feb602a836112aa565b91507f4c6f737320636f656666696369656e74206d757374206265206265747765656e60008301527f203020616e6420313030000000000000000000000000000000000000000000006020830152604082019050919050565b6000611051601d836112aa565b91507f496e73756666696369656e7420636f6e74726163742062616c616e63650000006000830152602082019050919050565b60a08201600082015161109a6000850182610e7c565b5060208201516110ad6020850182610e7c565b5060408201516110c060408501826110ec565b5060608201516110d360608501826110ec565b5060808201516110e660808501826110ec565b50505050565b6110f5816113ac565b82525050565b611104816113ac565b82525050565b600060a08201905061111f6000830188610e8b565b61112c6020830187610e8b565b61113960408301866110fb565b61114660608301856110fb565b61115360808301846110fb565b9695505050505050565b600060208201905081810360008301526111778184610e9a565b905092915050565b6000602082019050818103600083015261119881610ef8565b9050919050565b600060208201905081810360008301526111b881610f38565b9050919050565b600060208201905081810360008301526111d881610f78565b9050919050565b600060208201905081810360008301526111f881610fde565b9050919050565b6000602082019050818103600083015261121881611044565b9050919050565b600060208201905061123460008301846110fb565b92915050565b600060608201905061124f60008301866110fb565b61125c60208301856110fb565b61126960408301846110fb565b949350505050565b6000819050602082019050919050565b600081519050919050565b6000602082019050919050565b600082825260208201905092915050565b600082825260208201905092915050565b60006112c6826113ac565b91506112d1836113ac565b9250826112e1576112e061142e565b5b828204905092915050565b60006112f7826113ac565b9150611302836113ac565b9250817fffffffffffffffffffffffffffffffffffffffffffffffffffffffffffffffff048311821515161561133b5761133a6113ff565b5b828202905092915050565b6000611351826113ac565b915061135c836113ac565b92508282101561136f5761136e6113ff565b5b828203905092915050565b60006113858261138c565b9050919050565b600073ffffffffffffffffffffffffffffffffffffffff82169050919050565b6000819050919050565b60006113c1826113ac565b91507fffffffffffffffffffffffffffffffffffffffffffffffffffffffffffffffff8214156113f4576113f36113ff565b5b600182019050919050565b7f4e487b7100000000000000000000000000000000000000000000000000000000600052601160045260246000fd5b7f4e487b7100000000000000000000000000000000000000000000000000000000600052601260045260246000fd5b6114668161137a565b811461147157600080fd5b50565b61147d816113ac565b811461148857600080fd5b5056fea2646970667358221220a2cef8009e43e9efe30b146f94f3b2e809d75a8fb8e35c9d8cf9b3c4449b4c6064736f6c63430008000033",
  "immutableReferences": {},
  "source": "// SPDX-License-Identifier: MIT\npragma solidity ^0.8.0;\n\ncontract EnergyTransfer {\n    uint256 public constant PRICE_PER_MWH = 23000; // Price in Kazakhstani Tenge\n\n    struct Transfer {\n        address generator;\n        address consumer;\n        uint256 energyGenerated; // in MWh\n        uint256 energyReceived; // in MWh\n        uint256 cost; // in Tenge\n    }\n\n    Transfer[] public transfers;\n\n    event TransferLogged(\n        address indexed generator,\n        address indexed consumer,\n        uint256 energyGenerated,\n        uint256 energyReceived,\n        uint256 cost\n    );\n\n    event EtherTransferred(address indexed from, address indexed to, uint256 value);\n\n    mapping(address => uint256) public balanceOf;\n\n    function logEnergyTransfer(\n        address _generator,\n        address _consumer,\n        uint256 _energyGenerated,\n        uint256 _lossCoefficient\n    ) public payable {\n        require(_energyGenerated > 0, \"Energy generated must be greater than zero\");\n        require(_lossCoefficient >= 0 && _lossCoefficient <= 100, \"Loss coefficient must be between 0 and 100\");\n\n        uint256 energyLoss = (_energyGenerated * _lossCoefficient) / 100;\n        uint256 energyReceived = _energyGenerated - energyLoss;\n        uint256 cost = (energyReceived * PRICE_PER_MWH);\n\n        uint256 etherPrice = getEtherPrice(); // Mock function to get the price of Ether in Tenge\n        uint256 costInEther = (cost * 1 ether) / etherPrice;\n\n        require(msg.value >= costInEther, \"Insufficient Ether sent\");\n\n        Transfer memory newTransfer = Transfer({\n            generator: _generator,\n            consumer: _consumer,\n            energyGenerated: _energyGenerated,\n            energyReceived: energyReceived,\n            cost: cost\n        });\n\n        transfers.push(newTransfer);\n\n        // Transfer ether from consumer to generator\n        _transferEther(_generator, costInEther);\n\n        emit TransferLogged(_generator, _consumer, _energyGenerated, energyReceived, cost);\n    }\n\n    function _transferEther(address _to, uint256 _value) internal {\n        require(address(this).balance >= _value, \"Insufficient contract balance\");\n        payable(_to).transfer(_value);\n        emit EtherTransferred(msg.sender, _to, _value);\n    }\n\n    function getTransferCount() public view returns (uint256) {\n        return transfers.length;\n    }\n\n    function getTransfer(uint256 _index) public view returns (\n        address generator,\n        address consumer,\n        uint256 energyGenerated,\n        uint256 energyReceived,\n        uint256 cost\n    ) {\n        require(_index < transfers.length, \"Invalid index\");\n        Transfer memory transfer = transfers[_index];\n        return (\n            transfer.generator,\n            transfer.consumer,\n            transfer.energyGenerated,\n            transfer.energyReceived,\n            transfer.cost\n        );\n    }\n\n    function getTransfersByAddress(address _address) public view returns (Transfer[] memory) {\n        uint256 count = 0;\n        for (uint256 i = 0; i < transfers.length; i++) {\n            if (transfers[i].generator == _address || transfers[i].consumer == _address) {\n                count++;\n            }\n        }\n\n        Transfer[] memory result = new Transfer[](count);\n        uint256 j = 0;\n        for (uint256 i = 0; i < transfers.length; i++) {\n            if (transfers[i].generator == _address || transfers[i].consumer == _address) {\n                result[j] = transfers[i];\n                j++;\n            }\n        }\n\n        return result;\n    }\n\n    // Mock function to get Ether price in Tenge\n    function getEtherPrice() public pure returns (uint256) {\n        return 1435457;\n    }\n}\n",
  "sourcePath": "/Users/abdisadykov/WebstormProjects/generatorFreelance/contracts/EnergyTransfer.sol",
  "compiler": {
    "name": "solc",
    "version": "0.8.0+commit.c7dfd78e.Emscripten.clang"
  },
  "schemaVersion": "3.4.16",
  "updatedAt": "2024-07-07T12:06:26.722Z",
  "devdoc": {
    "kind": "dev",
    "methods": {},
    "version": 1
  },
  "userdoc": {
    "kind": "user",
    "methods": {},
    "version": 1
  }
}