{
  "contractName": "EnergyTransfer",
  "abi": [
    {
      "anonymous": false,
      "inputs": [
        {
          "indexed": true,
          "internalType": "address",
          "name": "generator",
          "type": "address"
        },
        {
          "indexed": true,
          "internalType": "address",
          "name": "consumer",
          "type": "address"
        },
        {
          "indexed": false,
          "internalType": "uint256",
          "name": "energyGenerated",
          "type": "uint256"
        },
        {
          "indexed": false,
          "internalType": "uint256",
          "name": "energyReceived",
          "type": "uint256"
        },
        {
          "indexed": false,
          "internalType": "uint256",
          "name": "cost",
          "type": "uint256"
        }
      ],
      "name": "TransferLogged",
      "type": "event"
    },
    {
      "inputs": [],
      "name": "PRICE_PER_KWH",
      "outputs": [
        {
          "internalType": "uint256",
          "name": "",
          "type": "uint256"
        }
      ],
      "stateMutability": "view",
      "type": "function",
      "constant": true
    },
    {
      "inputs": [
        {
          "internalType": "uint256",
          "name": "",
          "type": "uint256"
        }
      ],
      "name": "transfers",
      "outputs": [
        {
          "internalType": "address",
          "name": "generator",
          "type": "address"
        },
        {
          "internalType": "address",
          "name": "consumer",
          "type": "address"
        },
        {
          "internalType": "uint256",
          "name": "energyGenerated",
          "type": "uint256"
        },
        {
          "internalType": "uint256",
          "name": "energyReceived",
          "type": "uint256"
        },
        {
          "internalType": "uint256",
          "name": "cost",
          "type": "uint256"
        }
      ],
      "stateMutability": "view",
      "type": "function",
      "constant": true
    },
    {
      "inputs": [
        {
          "internalType": "address",
          "name": "_generator",
          "type": "address"
        },
        {
          "internalType": "address",
          "name": "_consumer",
          "type": "address"
        },
        {
          "internalType": "uint256",
          "name": "_energyGenerated",
          "type": "uint256"
        },
        {
          "internalType": "uint256",
          "name": "_lossCoefficient",
          "type": "uint256"
        }
      ],
      "name": "logEnergyTransfer",
      "outputs": [],
      "stateMutability": "nonpayable",
      "type": "function"
    },
    {
      "inputs": [],
      "name": "getTransferCount",
      "outputs": [
        {
          "internalType": "uint256",
          "name": "",
          "type": "uint256"
        }
      ],
      "stateMutability": "view",
      "type": "function",
      "constant": true
    },
    {
      "inputs": [
        {
          "internalType": "uint256",
          "name": "_index",
          "type": "uint256"
        }
      ],
      "name": "getTransfer",
      "outputs": [
        {
          "internalType": "address",
          "name": "generator",
          "type": "address"
        },
        {
          "internalType": "address",
          "name": "consumer",
          "type": "address"
        },
        {
          "internalType": "uint256",
          "name": "energyGenerated",
          "type": "uint256"
        },
        {
          "internalType": "uint256",
          "name": "energyReceived",
          "type": "uint256"
        },
        {
          "internalType": "uint256",
          "name": "cost",
          "type": "uint256"
        }
      ],
      "stateMutability": "view",
      "type": "function",
      "constant": true
    },
    {
      "inputs": [
        {
          "internalType": "address",
          "name": "_address",
          "type": "address"
        }
      ],
      "name": "getTransfersByAddress",
      "outputs": [
        {
          "components": [
            {
              "internalType": "address",
              "name": "generator",
              "type": "address"
            },
            {
              "internalType": "address",
              "name": "consumer",
              "type": "address"
            },
            {
              "internalType": "uint256",
              "name": "energyGenerated",
              "type": "uint256"
            },
            {
              "internalType": "uint256",
              "name": "energyReceived",
              "type": "uint256"
            },
            {
              "internalType": "uint256",
              "name": "cost",
              "type": "uint256"
            }
          ],
          "internalType": "struct EnergyTransfer.Transfer[]",
          "name": "",
          "type": "tuple[]"
        }
      ],
      "stateMutability": "view",
      "type": "function",
      "constant": true
    }
  ],
  "bytecode": "0x608060405234801561001057600080fd5b506111a9806100206000396000f3fe608060405234801561001057600080fd5b50600436106100625760003560e01c8063040e55f5146100675780631753c8f314610085578063193ba102146100a15780639377d711146100bf578063c16fe907146100f3578063d519107e14610127575b600080fd5b61006f610157565b60405161007c9190610f07565b60405180910390f35b61009f600480360381019061009a9190610b80565b610163565b005b6100a96103d8565b6040516100b69190610f07565b60405180910390f35b6100d960048036038101906100d49190610be3565b6103dd565b6040516100ea959493929190610e32565b60405180910390f35b61010d60048036038101906101089190610be3565b610463565b60405161011e959493929190610e32565b60405180910390f35b610141600480360381019061013c9190610b57565b6105fe565b60405161014e9190610e85565b60405180910390f35b60008080549050905090565b600082116101a6576040517f08c379a000000000000000000000000000000000000000000000000000000000815260040161019d90610ec7565b60405180910390fd5b600081101580156101b8575060648111155b6101f7576040517f08c379a00000000000000000000000000000000000000000000000000000000081526004016101ee90610ee7565b60405180910390fd5b6000606482846102079190610fd4565b6102119190610fa3565b905060008184610221919061102e565b90506000600a826102329190610fd4565b905060006040518060a001604052808973ffffffffffffffffffffffffffffffffffffffff1681526020018873ffffffffffffffffffffffffffffffffffffffff168152602001878152602001848152602001838152509050600081908060018154018082558091505060019003906000526020600020906005020160009091909190915060008201518160000160006101000a81548173ffffffffffffffffffffffffffffffffffffffff021916908373ffffffffffffffffffffffffffffffffffffffff16021790555060208201518160010160006101000a81548173ffffffffffffffffffffffffffffffffffffffff021916908373ffffffffffffffffffffffffffffffffffffffff16021790555060408201518160020155606082015181600301556080820151816004015550508673ffffffffffffffffffffffffffffffffffffffff168873ffffffffffffffffffffffffffffffffffffffff167ffda3a173998751d4dca4d16e10b92a9081d4c3704819b8649ff4a17f9e94ca1b8886866040516103c693929190610f22565b60405180910390a35050505050505050565b600a81565b600081815481106103ed57600080fd5b90600052602060002090600502016000915090508060000160009054906101000a900473ffffffffffffffffffffffffffffffffffffffff16908060010160009054906101000a900473ffffffffffffffffffffffffffffffffffffffff16908060020154908060030154908060040154905085565b6000806000806000808054905086106104b1576040517f08c379a00000000000000000000000000000000000000000000000000000000081526004016104a890610ea7565b60405180910390fd5b60008087815481106104ec577f4e487b7100000000000000000000000000000000000000000000000000000000600052603260045260246000fd5b90600052602060002090600502016040518060a00160405290816000820160009054906101000a900473ffffffffffffffffffffffffffffffffffffffff1673ffffffffffffffffffffffffffffffffffffffff1673ffffffffffffffffffffffffffffffffffffffff1681526020016001820160009054906101000a900473ffffffffffffffffffffffffffffffffffffffff1673ffffffffffffffffffffffffffffffffffffffff1673ffffffffffffffffffffffffffffffffffffffff1681526020016002820154815260200160038201548152602001600482015481525050905080600001518160200151826040015183606001518460800151955095509550955095505091939590929450565b60606000805b600080549050811015610773578373ffffffffffffffffffffffffffffffffffffffff1660008281548110610662577f4e487b7100000000000000000000000000000000000000000000000000000000600052603260045260246000fd5b906000526020600020906005020160000160009054906101000a900473ffffffffffffffffffffffffffffffffffffffff1673ffffffffffffffffffffffffffffffffffffffff16148061074c57508373ffffffffffffffffffffffffffffffffffffffff1660008281548110610702577f4e487b7100000000000000000000000000000000000000000000000000000000600052603260045260246000fd5b906000526020600020906005020160010160009054906101000a900473ffffffffffffffffffffffffffffffffffffffff1673ffffffffffffffffffffffffffffffffffffffff16145b1561076057818061075c9061109e565b9250505b808061076b9061109e565b915050610604565b5060008167ffffffffffffffff8111156107b6577f4e487b7100000000000000000000000000000000000000000000000000000000600052604160045260246000fd5b6040519080825280602002602001820160405280156107ef57816020015b6107dc610ad2565b8152602001906001900390816107d45790505b5090506000805b600080549050811015610ac6578573ffffffffffffffffffffffffffffffffffffffff1660008281548110610854577f4e487b7100000000000000000000000000000000000000000000000000000000600052603260045260246000fd5b906000526020600020906005020160000160009054906101000a900473ffffffffffffffffffffffffffffffffffffffff1673ffffffffffffffffffffffffffffffffffffffff16148061093e57508573ffffffffffffffffffffffffffffffffffffffff16600082815481106108f4577f4e487b7100000000000000000000000000000000000000000000000000000000600052603260045260246000fd5b906000526020600020906005020160010160009054906101000a900473ffffffffffffffffffffffffffffffffffffffff1673ffffffffffffffffffffffffffffffffffffffff16145b15610ab3576000818154811061097d577f4e487b7100000000000000000000000000000000000000000000000000000000600052603260045260246000fd5b90600052602060002090600502016040518060a00160405290816000820160009054906101000a900473ffffffffffffffffffffffffffffffffffffffff1673ffffffffffffffffffffffffffffffffffffffff1673ffffffffffffffffffffffffffffffffffffffff1681526020016001820160009054906101000a900473ffffffffffffffffffffffffffffffffffffffff1673ffffffffffffffffffffffffffffffffffffffff1673ffffffffffffffffffffffffffffffffffffffff1681526020016002820154815260200160038201548152602001600482015481525050838381518110610a99577f4e487b7100000000000000000000000000000000000000000000000000000000600052603260045260246000fd5b60200260200101819052508180610aaf9061109e565b9250505b8080610abe9061109e565b9150506107f6565b50819350505050919050565b6040518060a00160405280600073ffffffffffffffffffffffffffffffffffffffff168152602001600073ffffffffffffffffffffffffffffffffffffffff1681526020016000815260200160008152602001600081525090565b600081359050610b3c81611145565b92915050565b600081359050610b518161115c565b92915050565b600060208284031215610b6957600080fd5b6000610b7784828501610b2d565b91505092915050565b60008060008060808587031215610b9657600080fd5b6000610ba487828801610b2d565b9450506020610bb587828801610b2d565b9350506040610bc687828801610b42565b9250506060610bd787828801610b42565b91505092959194509250565b600060208284031215610bf557600080fd5b6000610c0384828501610b42565b91505092915050565b6000610c188383610dac565b60a08301905092915050565b610c2d81611062565b82525050565b610c3c81611062565b82525050565b6000610c4d82610f69565b610c578185610f81565b9350610c6283610f59565b8060005b83811015610c93578151610c7a8882610c0c565b9750610c8583610f74565b925050600181019050610c66565b5085935050505092915050565b6000610cad600d83610f92565b91507f496e76616c696420696e646578000000000000000000000000000000000000006000830152602082019050919050565b6000610ced602a83610f92565b91507f456e657267792067656e657261746564206d757374206265206772656174657260008301527f207468616e207a65726f000000000000000000000000000000000000000000006020830152604082019050919050565b6000610d53602a83610f92565b91507f4c6f737320636f656666696369656e74206d757374206265206265747765656e60008301527f203020616e6420313030000000000000000000000000000000000000000000006020830152604082019050919050565b60a082016000820151610dc26000850182610c24565b506020820151610dd56020850182610c24565b506040820151610de86040850182610e14565b506060820151610dfb6060850182610e14565b506080820151610e0e6080850182610e14565b50505050565b610e1d81611094565b82525050565b610e2c81611094565b82525050565b600060a082019050610e476000830188610c33565b610e546020830187610c33565b610e616040830186610e23565b610e6e6060830185610e23565b610e7b6080830184610e23565b9695505050505050565b60006020820190508181036000830152610e9f8184610c42565b905092915050565b60006020820190508181036000830152610ec081610ca0565b9050919050565b60006020820190508181036000830152610ee081610ce0565b9050919050565b60006020820190508181036000830152610f0081610d46565b9050919050565b6000602082019050610f1c6000830184610e23565b92915050565b6000606082019050610f376000830186610e23565b610f446020830185610e23565b610f516040830184610e23565b949350505050565b6000819050602082019050919050565b600081519050919050565b6000602082019050919050565b600082825260208201905092915050565b600082825260208201905092915050565b6000610fae82611094565b9150610fb983611094565b925082610fc957610fc8611116565b5b828204905092915050565b6000610fdf82611094565b9150610fea83611094565b9250817fffffffffffffffffffffffffffffffffffffffffffffffffffffffffffffffff0483118215151615611023576110226110e7565b5b828202905092915050565b600061103982611094565b915061104483611094565b925082821015611057576110566110e7565b5b828203905092915050565b600061106d82611074565b9050919050565b600073ffffffffffffffffffffffffffffffffffffffff82169050919050565b6000819050919050565b60006110a982611094565b91507fffffffffffffffffffffffffffffffffffffffffffffffffffffffffffffffff8214156110dc576110db6110e7565b5b600182019050919050565b7f4e487b7100000000000000000000000000000000000000000000000000000000600052601160045260246000fd5b7f4e487b7100000000000000000000000000000000000000000000000000000000600052601260045260246000fd5b61114e81611062565b811461115957600080fd5b50565b61116581611094565b811461117057600080fd5b5056fea26469706673582212208c1dc9cd3aa4d24cf3104689ddb7d8fae15c03ce242451d1f158078a1318388b64736f6c63430008000033",
  "immutableReferences": {},
  "source": "// SPDX-License-Identifier: MIT\r\npragma solidity ^0.8.0;\r\n\r\ncontract EnergyTransfer {\r\n    uint256 public constant PRICE_PER_KWH = 10; //    , .. 10  = 0.10 \r\n\r\n    struct Transfer {\r\n        address generator;\r\n        address consumer;\r\n        uint256 energyGenerated; //  \r\n        uint256 energyReceived; //  \r\n        uint256 cost; //  \r\n    }\r\n\r\n    Transfer[] public transfers;\r\n\r\n    event TransferLogged(\r\n        address indexed generator,\r\n        address indexed consumer,\r\n        uint256 energyGenerated,\r\n        uint256 energyReceived,\r\n        uint256 cost\r\n    );\r\n\r\n    function logEnergyTransfer(\r\n        address _generator,\r\n        address _consumer,\r\n        uint256 _energyGenerated,\r\n        uint256 _lossCoefficient\r\n    ) public {\r\n        require(_energyGenerated > 0, \"Energy generated must be greater than zero\");\r\n        require(_lossCoefficient >= 0 && _lossCoefficient <= 100, \"Loss coefficient must be between 0 and 100\");\r\n\r\n        uint256 energyLoss = (_energyGenerated * _lossCoefficient) / 100;\r\n        uint256 energyReceived = _energyGenerated - energyLoss;\r\n        uint256 cost = (energyReceived * PRICE_PER_KWH);\r\n\r\n        Transfer memory newTransfer = Transfer({\r\n            generator: _generator,\r\n            consumer: _consumer,\r\n            energyGenerated: _energyGenerated,\r\n            energyReceived: energyReceived,\r\n            cost: cost\r\n        });\r\n\r\n        transfers.push(newTransfer);\r\n\r\n        emit TransferLogged(_generator, _consumer, _energyGenerated, energyReceived, cost);\r\n    }\r\n\r\n    function getTransferCount() public view returns (uint256) {\r\n        return transfers.length;\r\n    }\r\n\r\n    function getTransfer(uint256 _index) public view returns (\r\n        address generator,\r\n        address consumer,\r\n        uint256 energyGenerated,\r\n        uint256 energyReceived,\r\n        uint256 cost\r\n    ) {\r\n        require(_index < transfers.length, \"Invalid index\");\r\n        Transfer memory transfer = transfers[_index];\r\n        return (\r\n            transfer.generator,\r\n            transfer.consumer,\r\n            transfer.energyGenerated,\r\n            transfer.energyReceived,\r\n            transfer.cost\r\n        );\r\n    }\r\n\r\n    function getTransfersByAddress(address _address) public view returns (Transfer[] memory) {\r\n        uint256 count = 0;\r\n        for (uint256 i = 0; i < transfers.length; i++) {\r\n            if (transfers[i].generator == _address || transfers[i].consumer == _address) {\r\n                count++;\r\n            }\r\n        }\r\n\r\n        Transfer[] memory result = new Transfer[](count);\r\n        uint256 j = 0;\r\n        for (uint256 i = 0; i < transfers.length; i++) {\r\n            if (transfers[i].generator == _address || transfers[i].consumer == _address) {\r\n                result[j] = transfers[i];\r\n                j++;\r\n            }\r\n        }\r\n\r\n        return result;\r\n    }\r\n}\r\n",
  "sourcePath": "E:\\frontEnd\\freelanceTest\\generatorFreelance\\contracts\\EnergyTransfer.sol",
  "compiler": {
    "name": "solc",
    "version": "0.8.0+commit.c7dfd78e.Emscripten.clang"
  },
  "schemaVersion": "3.4.16",
  "updatedAt": "2024-07-07T04:23:13.018Z",
  "networkType": "ethereum",
  "devdoc": {
    "kind": "dev",
    "methods": {},
    "version": 1
  },
  "userdoc": {
    "kind": "user",
    "methods": {},
    "version": 1
  }
}